:10000000882300207D38000041A3000069380000EB
:10001000693800006938000069380000693800005C
:10002000000000000000000000000000293A00006D
:100030006938000000000000E9390000693800005C
:10004000B13B0000B13B0000B13B0000B13B000000
:10005000B13B0000B13B0000B13B0000B13B0000F0
:10006000B13B0000B13B0000B13B0000B13B0000E0
:10007000B13B0000B13B0000B13B0000B13B0000D0
:10008000B13B0000B13B0000B13B0000B13B0000C0
:10009000B13B0000B13B0000B13B0000B13B0000B0
:1000A000B13B0000B13B0000B13B0000B13B0000A0
:1000B000B13B0000B13B0000B13B0000B13B000090
:1000C000B13B0000B13B0000B13B0000B13B000080
:1000D000B13B0000B13B0000B13B0000B13B000070
:1000E000B13B0000B13B0000B13B0000B13B000060
:1000F000B13B0000B13B0000B13B0000B13B000050
:10010000B13B0000B13B0000B13B0000B13B00003F
:10011000B13B0000B13B0000B13B0000B13B00002F
:10012000B13B0000B13B0000B13B0000B13B00001F
:10013000B13B0000B13B0000B13B0000B13B00000F
:10014000B13B0000B13B0000B13B0000B13B0000FF
:04015000B13B0000BF
:100158004FF0FF0C1CEAD0521EBF1CEAD15392EAA2
:100168000C0F93EA0C0F6FD01A4480EA010C40027E
:1001780018BF5FEA41211ED04FF0006343EA5010D8
:1001880043EA5111A0FB01310CF00040B1F5000F1A
:100198003EBF490041EAD3715B0040EA010062F1C9
:1001A8007F02FD2A1DD8B3F1004F40EBC25008BFB3
:1001B80020F00100704790F0000F0CF0004C08BFD1
:1001C80049024CEA502040EA51207F3AC2BFD2F19E
:1001D800FF0340EAC250704740F400004FF00003AC
:1001E800013A5DDC12F1190FDCBF00F000407047E6
:1001F800C2F10002410021FA02F1C2F1200200FA24
:1002080002FC5FEA310040F1000053EA4C0308BFEA
:1002180020EADC70704792F0000F00F0004C02BF3B
:10022800400010F4000F013AF9D040EA0C0093F0B6
:10023800000F01F0004C02BF490011F4000F013B10
:10024800F9D041EA0C018FE70CEAD15392EA0C0F7E
:1002580018BF93EA0C0F0AD030F0004C18BF31F0E9
:10026800004CD8D180EA010000F00040704790F0BF
:10027800000F17BF90F0004F084691F0000F91F063
:10028800004F14D092EA0C0F01D142020FD193EA29
:100298000C0F03D14B0218BF084608D180EA0100B1
:1002A80000F0004040F0FE4040F40000704740F08D
:1002B800FE4040F44000704781F0004102E000BF7A
:1002C80083F0004330B54FEA41044FEA430594EA0E
:1002D800050F08BF90EA020F1FBF54EA000C55EA49
:1002E800020C7FEA645C7FEA655C00F0E2804FEA1A
:1002F8005454D4EB5555B8BF6D420CDD2C4480EAFC
:10030800020281EA030382EA000083EA010180EA2B
:10031800020281EA0303362D88BF30BD11F0004F79
:100328004FEA01314FF4801C4CEA113102D04042AF
:1003380061EB410113F0004F4FEA03334CEA1333EA
:1003480002D0524263EB430394EA050F00F0A78002
:10035800A4F10104D5F1200E0DDB02FA0EFC22FAFD
:1003680005F2801841F1000103FA0EF2801843FAF1
:1003780005F359410EE0A5F120050EF1200E012AE2
:1003880003FA0EFC28BF4CF0020C43FA05F3C01820
:1003980051EBE37101F0004507D54FF0000EDCF199
:1003A800000C7EEB00006EEB0101B1F5801F1BD342
:1003B800B1F5001F0CD349085FEA30004FEA3C0C46
:1003C80004F101044FEA445212F5800F80F09A803C
:1003D800BCF1004F08BF5FEA500C50F1000041EB40
:1003E800045141EA050130BD5FEA4C0C404141EB44
:1003F8000101013C28BFB1F5801FE9D291F0000F3F
:1004080004BF01460020B1FA81F308BF2033A3F1ED
:100418000B03B3F120020CDA0C3208DD02F1140CE4
:10042800C2F10C0201FA0CF021FA02F10CE002F11F
:100438001402D8BFC2F1200C01FA02F120FA0CFC18
:10044800DCBF41EA0C019040E41AA2BF01EB045161
:10045800294330BD6FEA04041F3C1CDA0C340EDC5F
:1004680004F11404C4F1200220FA04F001FA02F3A2
:1004780040EA030021FA04F345EA030130BDC4F160
:100488000C04C4F1200220FA02F001FA04F340EA55
:100498000300294630BD21FA04F0294630BD94F006
:1004A800000F83F4801306BF81F480110134013DED
:1004B8004EE77FEA645C18BF7FEA655C29D094EA5E
:1004C800050F08BF90EA020F05D054EA000C04BFDC
:1004D8001946104630BD91EA030F1EBF00210020C7
:1004E80030BD5FEA545C05D14000494128BF41F066
:1004F800004130BD14F580043CBF01F5801130BDCA
:1005080001F0004545F0FE4141F470014FF0000054
:1005180030BD7FEA645C1ABF194610467FEA655C05
:100528001CBF0B46024650EA013406BF52EA0335A7
:1005380091EA030F41F4002130BD00BF90F0000F95
:1005480004BF0021704730B54FF4806404F13204D1
:100558004FF000054FF0000150E700BF90F0000F8A
:1005680004BF0021704730B54FF4806404F13204B1
:1005780010F0004548BF40424FF000013EE700BF81
:1005880042004FEAE2014FEA31014FEA02701FBF11
:1005980012F07F4393F07F4F81F06051704732F043
:1005A8007F4208BF704793F07F4F04BF41F400219A
:1005B800704730B54FF4607401F0004521F00041F8
:1005C8001CE700BF50EA010208BF704730B54FF082
:1005D80000050AE050EA010208BF704730B511F083
:1005E800004502D5404261EB41014FF4806404F1BB
:1005F80032045FEA915C3FF4D8AE4FF003025FEA41
:10060800DC0C18BF03325FEADC0C18BF033202EBC4
:10061800DC02C2F1200300FA03FC20FA02F001FA1E
:1006280003FE40EA0E0021FA02F11444BDE600BFC1
:1006380070B54FF0FF0C4CF4E06C1CEA11541DBF70
:100648001CEA135594EA0C0F95EA0C0F00F0DEF83B
:100658002C4481EA030621EA4C5123EA4C5350EA20
:10066800013518BF52EA033541F4801143F4801371
:1006780038D0A0FB02CE4FF00005E1FB02E506F002
:100688000042E0FB03E54FF00006E1FB03569CF057
:10069800000F18BF4EF0010EA4F1FF04B6F5007F5D
:1006A80064F5407404D25FEA4E0E6D4146EB0606CF
:1006B80042EAC62141EA55514FEAC52040EA5E5058
:1006C8004FEACE2EB4F1FD0C88BFBCF5E06F1ED802
:1006D800BEF1004F08BF5FEA500E50F1000041EB39
:1006E800045170BD06F0004646EA010140EA0200E6
:1006F80081EA0301B4EB5C04C2BFD4EB0C0541EA08
:10070800045170BD41F480114FF0000E013C00F31C
:10071800AB8014F1360FDEBF002001F0004170BD40
:10072800C4F10004203C35DA0C341BDC04F1140459
:10073800C4F1200500FA05F320FA04F001FA05F2E5
:1007480040EA020001F0004221F0004110EBD370B2
:1007580021FA04F642EB06015EEA430E08BF20EADE
:10076800D37070BDC4F10C04C4F1200500FA04F381
:1007780020FA05F001FA04F240EA020001F0004113
:1007880010EBD37041F100015EEA430E08BF20EA86
:10079800D37070BDC4F1200500FA05F24EEA020ECE
:1007A80020FA04F301FA05F243EA020321FA04F0FD
:1007B80001F0004121FA04F220EA020000EBD370B4
:1007C8005EEA430E08BF20EAD37070BD94F0000FB4
:1007D8000FD101F00046400041EB010111F4801FE8
:1007E80008BF013CF7D041EA060195F0000F18BF99
:1007F800704703F00046520043EB030313F4801FD5
:1008080008BF013DF7D043EA0603704794EA0C0F8E
:100818000CEA135518BF95EA0C0F0CD050EA4106A4
:1008280018BF52EA4306D1D181EA030101F0004121
:100838004FF0000070BD50EA410606BF1046194649
:1008480052EA430619D094EA0C0F02D150EA013655
:1008580013D195EA0C0F05D152EA03361CBF104696
:1008680019460AD181EA030101F0004141F0FE4135
:1008780041F470014FF0000070BD41F0FE4141F4B9
:10088800780170BD70B54FF0FF0C4CF4E06C1CEAB9
:1008980011541DBF1CEA135594EA0C0F95EA0C0F6E
:1008A80000F0A7F8A4EB050481EA030E52EA033529
:1008B8004FEA013100F088804FEA03334FF080554A
:1008C80045EA131343EA12634FEA022245EA111577
:1008D80045EA10654FEA00260EF000419D4208BF28
:1008E800964244F1FD0404F5407402D25B084FEAD5
:1008F8003202B61A65EB03055B084FEA32024FF481
:1009080080104FF4002CB6EB020E75EB030E22BFDD
:10091800B61A754640EA0C005B084FEA3202B6EB9D
:10092800020E75EB030E22BFB61A754640EA5C004C
:100938005B084FEA3202B6EB020E75EB030E22BFDC
:10094800B61A754640EA9C005B084FEA3202B6EBDD
:10095800020E75EB030E22BFB61A754640EADC009C
:1009680055EA060E18D04FEA051545EA16754FEAFE
:1009780006164FEAC30343EA52734FEAC2025FEA1C
:100988001C1CC0D111F4801F0BD141EA00014FF0AB
:1009980000004FF0004CB6E711F4801F04BF01437C
:1009A8000020B4F1FD0C88BFBCF5E06F3FF6AFAE98
:1009B800B5EB030C04BFB6EB020C5FEA500C50F128
:1009C800000041EB045170BD0EF0004E4EEA1131AB
:1009D80014EB5C04C2BFD4EB0C0541EA045170BDB2
:1009E80041F480114FF0000E013C90E645EA060EF6
:1009F8008DE60CEA135594EA0C0F08BF95EA0C0F24
:100A08003FF43BAF94EA0C0F0AD150EA01347FF46B
:100A180034AF95EA0C0F7FF425AF104619462CE742
:100A280095EA0C0F06D152EA03353FF4FDAE1046A5
:100A3800194622E750EA410618BF52EA43067FF4F6
:100A4800C5AE50EA41047FF40DAF52EA43057FF486
:100A5800EBAE12E74FF0FF3C06E000BF4FF0010C91
:100A680002E000BF4FF0010C4DF804CD4FEA410CF5
:100A78007FEA6C5C4FEA430C18BF7FEA6C5C1BD0C2
:100A880001B050EA410C0CBF52EA430C91EA030F43
:100A980002BF90EA020F0020704710F1000F91EAA0
:100AA800030F58BF994208BF90422CBFD8176FEA6E
:100AB800E37040F0010070474FEA410C7FEA6C5C3C
:100AC80002D150EA013C07D14FEA430C7FEA6C5C43
:100AD800D6D152EA033CD3D05DF8040B704700BF6F
:100AE8008446104662468C461946634600E000BFBD
:100AF80001B5FFF7B7FF002848BF10F1000F01BD8F
:100B08004DF808EDFFF7F4FF0CBF012000205DF859
:100B180008FB00BF4DF808EDFFF7EAFF34BF0120DE
:100B280000205DF808FB00BF4DF808EDFFF7E0FF77
:100B380094BF012000205DF808FB00BF4DF808EDC8
:100B4800FFF7CEFF94BF012000205DF808FB00BF2F
:100B58004DF808EDFFF7C4FF34BF012000205DF811
:100B680008FB00BF4FEA4102B2F1E04324BFB3F5EE
:100B7800001CDCF1FE5C0DD901F0004C4FEAC0020C
:100B88004CEA5070B2F1004F40EB830008BF20F0F0
:100B98000100704711F0804F21D113F13872BCBFAA
:100BA80001F00040704741F480114FEA5252C2F1FF
:100BB8001802C2F1200C10FA0CF320FA02F018BF48
:100BC80040F001004FEAC1234FEAD32303FA0CFC9B
:100BD80040EA0C0023FA02F34FEA4303CCE77FEA2A
:100BE800625307D150EA01331EBF4FF0FE4040F474
:100BF8004000704701F0004040F0FE4040F4000023
:100C0800704700BF80F0004002E000BF81F0004163
:100C180042001FBF5FEA410392EA030F7FEA226C9A
:100C28007FEA236C6AD04FEA1262D2EB1363C1BF2A
:100C3800D218414048404140B8BF5B42192B88BF99
:100C4800704710F0004F40F4000020F07F4018BFBC
:100C5800404211F0004F41F4000121F07F4118BFDC
:100C6800494292EA030F3FD0A2F1010241FA03FC84
:100C780010EB0C00C3F1200301FA03F100F000436C
:100C880002D5494260EB4000B0F5000F13D3B0F134
:100C9800807F06D340084FEA310102F10102FE2AA3
:100CA80051D2B1F1004F40EBC25008BF20F0010013
:100CB80040EA03007047490040EB0000013A28BFB2
:100CC800B0F5000FEDD2B0FA80FCACF1080CB2EB35
:100CD8000C0200FA0CF0AABF00EBC25052421843B3
:100CE800BCBFD0401843704792F0000F81F4000158
:100CF80006BF80F400000132013BB5E74FEA41032B
:100D08007FEA226C18BF7FEA236C21D092EA030F96
:100D180004D092F0000F08BF0846704790EA010F10
:100D28001CBF0020704712F07F4F04D1400028BF3D
:100D380040F00040704712F100723CBF00F500001F
:100D4800704700F0004343F0FE4040F40000704755
:100D58007FEA226216BF08467FEA23630146420201
:100D680006BF5FEA412390EA010F40F48000704714
:100D78004FF0000304E000BF10F0004348BF4042BA
:100D88005FEA000C08BF704743F0964301464FF0F6
:100D980000001CE050EA010208BF70474FF0000352
:100DA8000AE000BF50EA010208BF704711F0004393
:100DB80002D5404261EB41015FEA010C02BF844663
:100DC8000146002043F0B64308BFA3F18053A3F5C2
:100DD8000003BCFA8CF2083AA3EBC25310DB01FA09
:100DE80002FC634400FA02FCC2F12002BCF1004F8D
:100DF80020FA02F243EB020008BF20F0010070471E
:100E080002F1200201FA02FCC2F1200250EA4C0071
:100E180021FA02F243EB020008BF20EADC707047B7
:100E28007BB972B90029BEBF00204FF0004106E02F
:100E380008BF00281CBF6FF000414FF0FF3000F0E2
:100E480057B8ADF1080C6DE904CE002909DB002B79
:100E58001ADB00F057F8DDF804E0DDE9022304B0FE
:100E68007047404261EB4101002B1BDB00F04AF860
:100E7800DDF804E0DDE9022304B0404261EB410102
:100E8800524263EB43037047524263EB430300F063
:100E980039F8DDF804E0DDE9022304B0404261EBF3
:100EA80041017047524263EB430300F02BF8DDF831
:100EB80004E0DDE9022304B0524263EB43037047C8
:100EC80053B94AB9002908BF00281CBF4FF0FF31A9
:100ED8004FF0FF3000F00CB8ADF1080C6DE904CE0E
:100EE80000F010F8DDF804E0DDE9022304B07047F3
:100EF800704700BF034613F8012B002AFBD1181ACC
:100F0800013870472DE9F04786468C460846089E0A
:100F1800154674461946002B40F0C1808542B2FA46
:100F280082F245D94AB1C2F1200300FA02FC954089
:100F380094402EFA03F343EA0C0C4FEA154EA8B27C
:100F4800230CBCFBFEF80EFB18CC08FB00F943EAA7
:100F58000C43994528D9EB1808F1FF3704D2994575
:100F680002D9A8F102072B44A3EB0903A4B2B3FBEF
:100F7800FEFC0EFB1C330CFB00F044EA0344A042C9
:100F880014D92C190CF1FF3304D2A04202D9ACF1C8
:100F980002032C44241A43EA07401EB1D44000231C
:100FA80034607360BDE8F0874746DDE76346F1E7E4
:100FB80092BB431B01214FEA154EAFB2200CB3FB85
:100FC800FEFC0EFB1C330CFB07F840EA0343984574
:100FD80061D9EB180CF1FF3004D2984502D9ACF175
:100FE80002002B44A3EB0803A4B2B3FBFEFC0EFBE8
:100FF8001C330CFB07F744EA0344A7424DD92C19CC
:101008000CF1FF3304D2A74202D9ACF102032C44FD
:10101800E41B43EA0040C0E7C2F120039540944036
:1010280020FA03F12EFA03F34FEA154E9040AFB2BF
:101038000343B1FBFEFC0EFB1C10190C0CFB07F85C
:1010480041EA0041884522D969180CF1FF3004D2E1
:10105800884502D9ACF102002944A1EB08019BB2F2
:10106800B1FBFEFC0EFB1C110CFB07F743EA014326
:101078009F420ED9EB180CF1FF3104D29F4202D9DE
:10108800ACF102012B44DB1B41EA004193E76046C7
:10109800E3E76146F7E76046A4E76346B8E78342BB
:1010A80006D916B9002108467CE7C6E900E0F9E749
:1010B800B3FA83F78FB9834201D3724508D8BEEBE0
:1010C800020460EB030301209C461EB9002169E776
:1010D8003846FAE7C6E9004CF8E7C7F1200CBB40F0
:1010E8000EFA07F522FA0CF42EFA0CF1BA401C435A
:1010F80020FA0CF3B8404FEA144901431FFA84FE62
:10110800B3FBF9F809FB18300B0C08FB0EFA43EA9D
:1011180000439A4540D9E31808F1FF3004D29A45B4
:1011280002D9A8F102002344A3EB0A0389B2B3FB56
:10113800F9F809FB183308FB0EFE41EA03418E4516
:101148002CD9611808F1FF3304D28E4502D9A8F1D1
:101158000203214443EA0040A1EB0E01A0FB0298E0
:101168004145CE46434602D306D14D4504D2013807
:10117800B9EB020E68EB0403002EA7D0B5EB0E0204
:1011880061EB030101FA0CFC22FA07F3F9404CEA7F
:101198000303C6E9003199E74046C5E74346D9E766
:1011A8002DE9F84304464068FFF7D8F92EA3D3E9A0
:1011B8000023FFF767FB064620680F46FFF7CEF9C6
:1011C80002460B4630463946FFF77CF8FFF7CAFC63
:1011D8000746E068FFF7C2F923A3D3E90023FFF726
:1011E80051FB8046A0688946FFF7B8F902460B46CE
:1011F80040464946FFF766F8FFF7B4FC06466069C3
:10120800FFF7ACF918A3D3E90023FFF73BFB8046AF
:1012180020698946FFF7A2F90B460246494640462F
:10122800FFF750F8FFF79EFC394605463846FEF7AB
:101238008FFF314604463046FEF78AFF01462046B6
:10124800FFF7E6FC294604462846FEF781FF0146DB
:101258002046FFF7DDFCFFF793F9BDE8F84308F0F7
:101268008FB900BFAFF300800000000080842E41DA
:101278002DE9F04114460569B9B9B5F90000297B93
:10128800714D80FB0101A0FB050647F6FF720023A4
:1012980005FB0161FFF7C4FD00236C4AFFF7C0FDA1
:1012A800206062600020BDE8F0810139062900F263
:1012B800C280DFE801F004070A4865686B00B5F9E9
:1012C8000200DCE7B5F90400D9E7B5F90000297B8D
:1012D8005D4E80FB0101A0FB060747F6FF72002365
:1012E80006FB0171FFF79CFD0023584AFFF798FDA4
:1012F800C4E90002B5F90200297B47F6FF7280FBBA
:101308000101A0FB0607002306FB0171FFF788FD1A
:1013180000234E4AFFF784FDC4E90202B5F9040030
:10132800297B47F6FF7280FB0101A0FB060500231D
:1013380006FB0151FFF774FD0023444AFFF770FDD7
:1013480020616261AEE7B5F906302A8A83FB025252
:101358003F4BA5FB035603FB026639A3D3E90023E1
:1013680028463146FFF75CFD0023206031462846B9
:10137800384AFFF755FD0023344AFFF751FD90E73F
:10138800B5F90830E1E7B5F90A30DEE7B5F90670D6
:101398002B8A2F4E87FB0373A7FB067806FB03886F
:1013A80027A3D3E9002338464146FFF739FD002338
:1013B800206041463846274AFFF732FD0023234A7A
:1013C800FFF72EFD6260B5F908702B8A87FB03735F
:1013D800A7FB067806FB038819A3D3E90023384640
:1013E8004146FFF71DFD0023A06041463846194AD3
:1013F800FFF716FD0023154AFFF712FDE260B5F965
:101408000A302A8A83FB0252A5FB065306FB0236E2
:101418000BA3D3E9002328463146FFF701FD00233B
:101428002061314628460B4AFFF7FAFC0023074A99
:10143800FFF7F6FC85E76FF0850034E7AFF300802F
:10144800006BC53F5D0500003AA3950040420F00C0
:10145800D8EF2F004CFF59002DE9FF47054690466D
:101468000C46D0F8109021B91AB9002004B0BDE894
:10147800F0870123402128460DF10E0209F01AF9E0
:101488000028F3D101237D2128460DF10F0209F030
:1014980011F90028EAD1FCB9B8F1000FE5D099F8A4
:1014A8000D20D8F80030072A00F25881102B00F0E0
:1014B800768100F36881013B072B00F27881072BC6
:1014C80000F27581DFE813F06901670173015D01BE
:1014D8007301730173016D016068FFF73FF8B6A3EC
:1014E800D3E90023FFF7CEF9064620680F46FFF739
:1014F80035F802460B4630463946FEF7E3FE9DF8BE
:101508000E400022AE4B06460F469DF80FA004F091
:10151800F004FFF713FB40B1002230463946A94BCF
:10152800FFF7F8FA002840F01381002230463946C8
:10153800A44BFFF703FB40B1002230463946A24BCB
:10154800FFF7E8FA002840F0FD80002230463946CF
:101558009D4BFFF7F3FA40B10022304639469B4BCA
:10156800FFF7D8FA002840F0E780002230463946D5
:10157800964BFFF7E3FA40B1002230463946944BC8
:10158800FFF7C8FA002840F0D180002230463946DB
:101598008F4BFFF7D3FA40B10022304639468D4BC6
:1015A800FFF7B8FA002840F0BB80002230463946E1
:1015B800884BFFF7C3FA40B1002230463946864BC4
:1015C800FFF7A8FA002840F0A580002230463946E7
:1015D800814BFFF7B3FA40B10022304639467F4BC2
:1015E800FFF798FA002840F08F80002230463946ED
:1015F8007A4BFFF7A3FA38B1002230463946784BC8
:10160800FFF788FA002879D1002230463946744B12
:10161800FFF794FA38B1002230463946714BFFF78C
:1016280079FA002864D10022304639466D4BFFF71D
:1016380085FA38B10022304639466B4BFFF76AFA13
:1016480000284FD1002230463946674BFFF776FA1B
:1016580030B1002230463946644BFFF75BFAD8BBFD
:10166800002230463946614BFFF768FA78B30C2000
:1016780044F00C044AF0040A44F080048DF80FA0EA
:101688008DF80E4089F80D00B8F1000F7FF407AF10
:101698000123402128460DF10E0209F03AF80028EE
:1016A8007FF4E4AE4FF4E17009F002F89DF80F30D2
:1016B8007D2103F00F038DF80F304FF47A7328461D
:1016C80000930DF10F02012309F02AF8CEE60AF083
:1016D800FB0A04F07F04D1E70B2044F00B044AF026
:1016E800040AC9E70A2044F00A044AF0040AC3E7D6
:1016F800092044F009044AF0040ABDE7082044F030
:1017080008044AF0040AB7E7072044F007044AF03F
:10171800040ADEE7062044F006044AF0040AD8E783
:10172800052044F005044AF0040AD2E7042044F0F6
:1017380004044AF0040ACCE7032044F003044AF006
:10174800040AC6E7022044F002044AF0040AC0E78B
:10175800012044F001044AF0040ABAE7022B1AD027
:10176800042B1AD0012B0CBF022303239DF80E2053
:101778001B0122F0300203F0300313438DF80E30C2
:1017880086E70223F2E7402B0DD0802B0DD0202BCB
:101798000DD10523EAE70123E8E70023E6E7042360
:1017A800E4E70323E2E70623E0E70723DEE76FF039
:1017B80085005BE6AFF300800000000080842E41C6
:1017C8000000E93F0000F93F00000940000019400F
:1017D80000002940000039400000494000005940FD
:1017E80000006940000079400000894000009940ED
:1017F8002DE9FF47054690460C46D0F8109021B9D0
:101808001AB9002004B0BDE8F08701234221284618
:101818000DF10E0208F04EFF0028F3D101237D21BF
:1018280028460DF10F0208F045FF0028EAD1A4B9B7
:10183800B8F1000FE5D0D8F80030022B00F0F7809F
:10184800043B18BF01235B009DF80E2022F03002F4
:1018580042EA03138DF80E309BE06068FEF77EFEC7
:1018680075A3D3E90023FFF70DF8064620680F4655
:10187800FEF774FE02460B4630463946FEF722FD57
:101888009DF80E4000226E4B06460F469DF80FA0AD
:1018980004F0F004FFF752F940B10022304639460F
:1018A800684BFFF737F9002840F0BB80002230462C
:1018B8003946644BFFF742F940B1002230463946B9
:1018C800614BFFF727F9002840F0A5800022304639
:1018D80039465D4BFFF732F940B1002230463946B0
:1018E8005A4BFFF717F9002840F08F800022304646
:1018F8003946564BFFF722F938B1002230463946AF
:10190800534BFFF707F9002879D1002230463946B2
:101918004F4BFFF713F938B10022304639464D4B8B
:10192800FFF7F8F8002864D1002230463946494BC1
:10193800FFF704F938B1002230463946464BFFF725
:10194800E9F800284FD1002230463946424BFFF7CC
:10195800F5F830B1002230463946404BFFF7DAF847
:10196800D8BB0022304639463C4BFFF7E7F878B33E
:101978000D2044F00D044AF0020A44F0C0048DF82A
:101988000FA08DF80E4089F80E00B8F1000F7FF413
:1019980052AF0123422128460DF10E0208F0B9FE8C
:1019A80000287FF42FAF4FF4E17008F081FE9DF816
:1019B8000F307D2103F00F038DF80F304FF47A7349
:1019C800284600930DF10F02012308F0A9FE19E73C
:1019D8000AF0FD0A04F03F04D1E70C2044F00C049F
:1019E8004AF0020AC9E70B2044F00B044AF0020A45
:1019F800C3E70A2044F00A044AF0020ABDE70920B6
:101A080044F009044AF0020AB7E7082044F0080441
:101A18004AF0020AB1E7072044F007044AF0020A34
:101A2800D8E7062044F006044AF0020AD2E7012368
:101A38000AE700BFAFF300800000000080842E4159
:101A4800000039400000494000005940000069404A
:101A58000000794000008940000099400000A9403A
:101A68002DE9F04F4C4E87B0306807F07CFE4FF4FC
:101A78000040002105F0D8FF4FF00008DFF81C9166
:101A880000214FF4A47005F0CFFF306807F06BFE1B
:101A9800306883686A461B69032198476846FFF7E0
:101AA8007FFB04460D4602460B463D4806F01AFCED
:101AB8000022204629463B4BFFF72CF83A4F30B11D
:101AC80001233B7009F02EFB384806F01DFC3B78DB
:101AD800002BD5D0002220462946354BFFF738F891
:101AE8000028CDD0334806F00FFC00233B704FF49C
:101AF8007A7709F017FBBB46A0FB070507FB0155E2
:101B0800C40BDFF8B4A044EA4544ED0B09F00AFB26
:101B180040F6B832A0FB0B0307FB0131C30B43EAC5
:101B280041431B1B4FEAD13161EB0501934271F12F
:101B3800000118DA00214FF4004005F075FF306805
:101B480007F011FE306883686A461B6903219847CD
:101B58006846FFF725FB42464B46FEF7F9FFB8B14A
:101B6800164806F0D1FB9AF80030002B88D01448AC
:101B780002698168136843F0805313600B68114A47
:101B88001C219847104806F0BFFB07B0BDE8F08F4E
:101B980001238AF80030B9E79008002000002840A7
:101BA800C0BF00000000144037120020D9BF000059
:101BB80000003940F7BF00003612002010C00000B6
:101BC80000B600000100060042C0000030B51D4804
:101BD8001D4C87B0206009F0F0F838B923681B481D
:101BE800196806F07FFB002007B030BD184809F0DF
:101BF800E4F818B3216817480A6806F073FB002553
:101C08000223CDE900356423CDE9023501236A4674
:101C180020680721CDE9043507F099FD206804AA5A
:101C2800062107F094FD2946206802AA07F08FFDD7
:101C3800094806F069FBFFF713FFD4E74FF0FF30C0
:101C4800D2E700BF50B60000900800205DC0000039
:101C580000B6000075C000008BC000002DE9F04FF1
:101C680091B0009302F004030293C2F3C20301335C
:101C7800840705460E46DDF868900392059340F008
:101C8800BB81041D30B1072909D86FF01B0011B0C2
:101C9800BDE8F08F01F00706341DC6F10806009B69
:101CA8004FF000084FF0040A591E4FF0FF33474623
:101CB8000193C3465346CDF810800DB1009A2260B7
:101CC8000598002800F3E8809848009A824203D3D8
:101CD80097488242C0F0E080039AA4EB050E920771
:101CE8004FEA9E0000F103810F2F00F2B180002D12
:101CF80000F0058107F140020DEB020C019A0CF887
:101D0800200C0CF8102C049801300490E7E07A2895
:101D18005DD84B280ED8472859D829282DD82528EA
:101D280052D054D820287AD02338D0F1000B4BEB6E
:101D3800000B74E04C382E2849D8DFE800F07048D2
:101D4800484848484848484848484B484848484808
:101D580048484859484B4B595959704B6D48704839
:101D6800184B184848827F4B48484B487F00002052
:101D78004FF0000B4FF0040A38E001222A38C0B2B5
:101D880002FA00F010EA0E0F49D110F0625C2FD170
:101D980010EA020B43D06046013C5444B4FBFAF409
:101DA8000AFB04F4002D61D0A3EB050CA444B44550
:101DB8003FF66BAF002868D1042B47D159F8043B94
:101DC8002360042304342AE0019A013A01924FF077
:101DD800000B24E011F8010C6C2834D1002011F814
:101DE800023C83466C2BC5D14FF0080A5346D3E713
:101DF80009F1070929F00709073424F00704F9E86D
:101E080002AB35B106982044B0423FF63EAFC4E974
:101E180000AB4FF0000B08344FF0080A534611F896
:101E2800010F002878D0BBF1000F7FF470AF252890
:101E3800F5D14FF0010B019B013301934FF0040AD8
:101E4800ECE7584694E700208346A5E7082B02D024
:101E58006FF015001BE709F1070929F00709F9E8F0
:101E68000223C4E9002308230834D8E768B9042BFF
:101E780002D109F10409A4E7082BE9D109F10709FE
:101E880029F0070909F10809EDE7059A013A0592D1
:101E980059F8042B009210E7039A900720D54FF0C9
:101EA800010CA4EB050E4FEA9E00BEF5007FCFD2D1
:101EB8000F2FCDD8F5B107F140020DEB020E019AB4
:101EC800C0B20EF8200C0EF8102CBCF1000F3FF435
:101ED8001AAF60F07F000EF8200C08F101080137F6
:101EE800C5F108024FF6DA7E0434069297E74FF000
:101EF800000CDAE7BCF1000F01D00136EFE70298D9
:101F080002360028EBD10098CDE90631FEF7F2FF42
:101F1800DDE906310644E2E7631BB3F5806F97D22B
:101F280045B9A6F10804E018B1E600BF48B50000BD
:101F380000CE0000029A9B0828602B709DF8103094
:101F4800C2B1EB7085F80280B8F1000F05D000220D
:101F580008A8C5F1010C97420ED14FF0000AC5F14F
:101F680001030DF1200901930DF1300B574512D1F2
:101F7800601B8CE66B70E5E710F8013B190608D585
:101F880004EB0C0EB64503F07F033FF67EAE04F873
:101F9800013B0132DFE7B8F1000F03D099F90020C7
:101FA800002A17DB029BD3B11AF80B2004F8012B87
:101FB8000022019B98182044B0423FF666AE99F87B
:101FC8000000009904F8010B2046039209F0D4F8A8
:101FD800039A14440AF1010A09F10109C6E799F8BC
:101FE800002055F822300093029B009845F82230D3
:101FF800FEF780FF421CDCE76FF00D0047E600BFEC
:102008002DE9F04F97B000AFD7F880B03B62CBF323
:10201800C0030446894690F802A0FA62BB6141B940
:10202800457800780AEB800020444D4517D8A0EB8E
:102038000409E378FB61BAF1000F02D01BF0010F2D
:1020480016D1FB6953BBFB6A1BB1494620463A6A65
:1020580098474D4628465C37BD46BDE8F08F461C7C
:102068003046FEF747FF0130304409F10109DCE74B
:10207800626823787A62FA6A9900796104EB8301CD
:10208800002A40F001810E464FF000084D4601EB52
:102098000A094E454CD101EB0A0610E01BF0020F6D
:1020A800D1D023789A007A61626804EB83017A625E
:1020B800FA6A002A77D14D46904601EB0A061BF0D2
:1020C800050F0CBF02230123FB62FB6906EB430AE1
:1020D8000BF00203BB625645BCD016F8021B16F87B
:1020E800013C54F82390AF4B994502D3AE4B994528
:1020F80036D3BB69002B40D0786A07F049FC00282A
:102108003BD0E9468AB06A46A84B53617B6AC2E96C
:1021180006314FF400731384A54B42F8103F002397
:102128004FF41251A34800F011FD023DCD46D2E70D
:1021380016F8013BF96254F82300FEF7DBFED7F8E6
:102148008430F96A01304BB1D7F8883098453EBFE2
:10215800D7F8843023F8180008F10108054498E7F7
:10216800BB6923B1786A07F013FC0028C9D11BF0BA
:10217800010F05D1FB6AED1AADE7BB6A002BAAD0A7
:102188004846FEF7B7FED7F8843053B1D7F8883001
:1021980098453FBFD7F88420431C22F8183008F12F
:1021A8000108054497E7BAF1000F73D01BF0040645
:1021B80073D0D046002607F1480052463B61B96209
:1021C80008F0DAFFB96A3B6901EB0A02BA62FA69F8
:1021D800F9695200FA60BA6A02EB41023A610BF0FF
:1021E8000202BA603A69B96A8A4258D162781BF029
:1021F800020F18BF00217A6208BF4FEA5801B218CF
:102208001BF0010FD2B240F09F801BF0040F14BFE7
:1022180040460020BB616270A070E17020463A6AB7
:102228007969FB6A9847051EFFF614AFBB694146FA
:1022380023707B6A3A6A6370FB6984F802A0E370D2
:1022480007F14800FB6A9847B0F10008C0F2B48073
:102258007B69A9EB0A01C91AFB683A6AC91AD7E966
:102268000A0398470028C0F2A9804FF0000BA84441
:1022780008EB000507F1380AB34567D300213A6A2D
:102288000846FB6A9847E5E656464FF0000807F10E
:10229800380092E75646D04696E7B04694E7BA6AC1
:1022A80012F8021B12F8015CBA6254F825003D4A84
:1022B800904202D33C4A90421ED3BA6932B1786A3E
:1022C8007B6007F065FB7B6800288BD1BA6802BB8E
:1022D80008F1280207F1300C08F10100944407F1D5
:1022E800580208F1020852FA80F00CF8101C5FFA44
:1022F80088F800F8105C75E7BA693AB1786A7B60CB
:1023080007F046FB7B6800287FF46CAF1BF0010FD9
:1023180009D006F1280207F13000711C161806F8DA
:10232800205CCEB25EE71BF0040F3FF45BAF08F110
:10233800280207F1300008F1010102EB000808F853
:10234800105C5FFA81F84DE7002063E71BF80A305C
:1023580054F8239087F83730D7F88430FBB133F836
:102368001B8001213A6AFB6A07F137009847002869
:1023780024DB0544B8F1000F06D14846FEF7BAFD44
:1023880000F101081FFA88F8414648463A6AFB6A94
:102398009847002812DB05440BF1010B6CE7D7F8CE
:1023A8008480DEE748B5000000CE0000AEC0000023
:1023B8000400000194B8000045464BE6054649E68E
:1023C800014B1860704700BF0000002080B505462B
:1023D8000E461746984605F063FB034609F0A6F833
:1023E8000446DFF81890424649F80030394630462E
:1023F800A84754F8090001F0A5FA00BF080000003A
:102408002DE9F047058B04462807904611D4022988
:1024180005F0070540F0CC80204607F04DFD78B167
:102428000138218B042811D8DFE800F0C2106D852F
:10243800950001290CBF45F0100545F020052583BE
:1024480088F31188BFF36F8FBDE8F08701F0070AA2
:10245800AA4500F0A5800027B9463E46A368002B90
:1024680000F0BC8041F00801218388F31188BFF394
:102478006F8FA168002900F0BA800D68002900F06C
:10248800B680334652462046D1F80480C047002D16
:1024980076D02B6829461D46F0E701F007035A1F3E
:1024A800012A1BD8002221F00701062B276889B2D0
:1024B800C4E9002209D13B4603E0628B0132628302
:1024C8001B68002BF9D141F002012046218307F057
:1024D800F3FC00287AD041F0200176E0042B0AD1E1
:1024E80021F0070189B22046218307F0E5FC10B1ED
:1024F80041F020012183218B01F0070AAA454FD022
:102508000027B946AAE7236921F0070141F006012F
:10251800062DD3F8009021832DD1B9F1000F3FD0BB
:1025280041F00801218388F31188BFF36F8F20469B
:102538003949C84729E021F00701236941F004011E
:1025480089B2042DD3F804902183E6D000274FF0F8
:10255800040A3E4682E721F00701236941F005019C
:1025680089B2052DD3F808902183D6D000274FF0E3
:10257800050A3E4672E700274FF0060A3E466DE719
:102588002B4687E7B9F1000FD1D1EFF3118820234B
:1025980083F31288BFF36F8F238B23F00803238301
:1025A800258BEA062ED525F01003238305F00705B1
:1025B8006669218B002EBFF670AF00232768C4E937
:1025C800003321F0070141F001012183218B4FF0F5
:1025D800000901F0070AAA457FF440AF002F9CD0FC
:1025E80041F00801218388F31188BFF36F8F002F12
:1025F800C8D03D68394633465246204607F088FC25
:102608002F46F4E7AB067FF51BAF25F020032383A5
:1026180005F0070500E700BF459F00002DE9F047DA
:10262800044607464FF00109DFF8508014B93846D0
:10263800BDE8F08794FAA4F5B5FA85F509FA05F32B
:102648002E0108EB05156FEA030A24EA03042B7B25
:10265800002BEBD058F806301B694BB94644736819
:1026680004222846196807EA0A0700F05BFADDE742
:10267800284698470028D9D1F0E700BFFCB80000E9
:1026880030B5002289B00F490F4808F04DFD0022EF
:1026980000230024CDE906230E230C4DCDE9033495
:1026A8004FF440722846CDE90144094B094900948A
:1026B80004F00AFF0849284608F028FC204609B01B
:1026C80030BD00BFE526000088060020000200207B
:1026D800D12900004813002062C10000014804F01D
:1026E8006BBE00BFEC0100202DE9F04780461F4873
:1026F8000F4607F0CDFC0646002830D000252846B6
:10270800BDE8F087237B6BB12368DB680BB12046FB
:10271800984723681B69D3B963680422204619685F
:1027280000F000FA013610344C45EBD3B8F1000F35
:10273800E5D0002DE2D02846FFF770FF0546002FB0
:10274800F7D000214FF4A47005F06EF9F1E72046A8
:1027580098470028E0D00AFA06F31D43E2E7054649
:102768004FF0010A024CDFF80C90DDE7A4080020C6
:10277800FCB800000CB90000014B53F8200070476A
:10278800BCBB000008B5034608462BB1044A1360D9
:1027980000F072FC002008BD6FF01500FBE700BFD9
:1027A8000400002010B5044C237813B9034804F042
:1027B80003FE0123237010BD38120020EC01002015
:1027C80010B50446094807F063FC3CB1084BD3E850
:1027D800EF1F0139C3E8E21F002AF8D1054808F0C5
:1027E800AFFCBDE81040044804F0E6BD9C0800209A
:1027F800A008002088060020EC01002000200146E7
:10280800034BD3E8EF0FC3E8E21F002AF9D1704762
:102818009C08002070B5FFF7F1FF0546074C084EED
:10282800B44200D370BD63685B792BB123685B68E1
:1028380013B12946204698471034F1E7FCB8000048
:102848000CB9000010B5044C0449204607F0D0F933
:10285800034B1C6010BD00BF60010020A8BB000036
:102868009408002008B50023074A4FF4004113706C
:10287800064A07481360074A1360FFF783FFBDE85D
:102888000840FFF7DFBF00BF391200209C08002076
:1028980095A00000A008002001460022002301485E
:1028A80007F0C7B960010020014807F05DBA00BF12
:1028B80060010020024B0146186807F0A9BA00BF62
:1028C80094080020014807F0DEBA00BF600100202C
:1028D80070B5264B1878002847D0FFF7E5FF054666
:1028E80070B1234BD3E8EF1F0139C3E8E21F002A78
:1028F800F8D1204C204EB4422DD32846FFF7DAFFFA
:102908001E4B1F4C1B68002B19DD08F00BFC4FF405
:102918007A72A0FB020302FB0131C30B43EA414375
:10292800D4E900209B1A40F2E9324FEAD13161EB39
:102938000001934271F1000101D3FFF76BFFD4E965
:10294800003213F57A7342F10002C4E90032BDE89F
:102958007040FFF7B7BF63685B7923B123682946E6
:1029680020461B6898471034C5E770BD3812002010
:10297800A0080020FCB800000CB900009C0800204A
:102988008006002070B50D4D297861B90120FFF748
:10299800ABFE0B4C0B4EB44206D3FFF799FF002851
:1029A800FBD101232B7070BD63685B791BB1236871
:1029B80020469B6898471034EDE700BF3912002085
:1029C800FCB800000CB9000000212DE9F0470846CA
:1029D800FFF78AFE044658B340F267684FF00009D3
:1029E80008F0A4FD1B4B1C4A1B58136033B11B4B4A
:1029F8001B68092B02DD1A4804F0DEFC0025194F7C
:102A0800DFF85CA044B12046FFF708FE044618B979
:102A18004FF0FF384FF0FF39FFF75AFF064628B945
:102A2800B5B942464B46504604F0EAFC3546E9E75C
:102A38004FF0FF384FF0FF39D2E72B689B691BB185
:102A480000222846114698471035BD42F5D3E8E7DD
:102A5800054DFAE70800000098080020A0080020AB
:102A6800EC0100200CB90000FCB8000013B51848B0
:102A780007F00EFB174B1B7873B1EFF3118420237B
:102A880083F31288BFF36F8FFFF722FF84F3118857
:102A9800BFF36F8F02B010BD0F4B1B68002BF9D02E
:102AA80050B9002200230D48CDE900234FF400421D
:102AB800002305F04BFAEDE70928EBD1074808F0A9
:102AC8003FFB074802B0BDE8104004F075BC00BFEA
:102AD800A00800203912002098080020880600204D
:102AE800EC01002010B5064B04461B6898472146A8
:102AF800A060044807F019F9BDE81040FFF7B6BF19
:102B08000400002060010020044A054B9B1AB1EB29
:102B1800D30F34BF52F83100002070478CB8000042
:102B2800FCB80000084B10B4C31A44681B110133E9
:102B3800237143689A7101224368196043685A7186
:102B480010BCFFF72FBE00BFFCB800002DE9F04F06
:102B58008FB0C1F34A2804AF0D469146B8607B6038
:102B68000C0DB8F1000F63D000264FF0040B4FF0A6
:102B78000A0A07F11403C7F80C80C7E907667E62E2
:102B88000193CDF808B0CDF800A007F11C03324638
:102B98004846F968FFF734FAB0F5006F03461CD3CE
:102BA8006C468AB0D9F8041004AB26481A46C3E923
:102BB800050140F2FF71D9614FF400711984224B6D
:102BC80042F8103F4FF4125133462048FFF7BEFF3A
:102BD800A5462C37BD46BDE8F08FC0F30A0804F1BE
:102BE8001700184420F0070080083B60FFF754FEE8
:102BF80068F35325044690B13B6800F11001C7E91A
:102C0800083607F11403F961CDE900A3CDF808B03F
:102C180048460F4AF96807F11C03FFF7F1F968F312
:102C280053252A4620467B68B96807F063FAD0E73F
:102C380004F1170020F007008008FFF72DFE044676
:102C4800EDE700BF77C1000004000001B4B8000040
:102C5800D1A000002DE9F04F87B00446DDE9105AF5
:102C6800DDE91279934698460391BFB13B46524637
:102C780010210020CDF80090CDF81490FEF7EEFF5B
:102C8800B0F5006F06460AD340F2FF730221174AD7
:102C9800174807B0BDE8F04F07F085BA3E4605F182
:102CA8001700304420F007008008FFF7F5FD04F016
:102CB80007040BF0070BE40044EA8B1444EA4624AB
:102CC80044EA0554054640B13FB13B4652463146B9
:102CD800CDF800901030FEF7C1FF43462246284643
:102CE800039907B0BDE8F04F07F004BAB6C1000079
:102CF800B4B80000406820B1034BC01A40F3CF00BD
:102D080070474FF0FF3070478CB800000EB403B521
:102D180003AB53F8042B01460448019301F078F9FA
:102D280002B05DF804EB03B0704700BF11A20000C9
:102D3800CA0605D48B064CBF02490349FFF7E6BF14
:102D4800704700BFEFC10000EEC100002DE9F04F51
:102D580089B09B46149B9DF84CA00693159B04468E
:102D68000593169B0D469046179E0493BAF1000FE3
:102D780000F09D8006F48073079307F0A3F906F02E
:102D88000209024600283ED020469149FFF7BEFFBF
:102D98000746B9F1000F08D016F0440F35D12A467E
:102DA80020468C49FFF7B2FF074406F0010353B1F0
:102DB800894B204653F82A20884B8949002A08BFA6
:102DC8001A46FFF7A3FF06F48073002B49D006F0DC
:102DD8000803002B63D1B8F1000F66D042462046A5
:102DE8008049FFF793FF0546069B3D44002B6DD1B4
:102DF800049B002B73D1F30700F1E4803146204691
:102E0800FFF796FFD8E00746C3E7774B1868002816
:102E1800CAD0764B4FF47A791B684FF46161B5FBE1
:102E2800F3F5B5FBF0F300FB135509FB05F5B3FB10
:102E3800F1F2B5FBF0FE4FF03C0C01FB123100FB48
:102E48001E55B1FBFCF309FB05F5B5FBF0F50CFBD2
:102E5800131120460091CDE901E56549FFF756FFBA
:102E6800A2E706F00803EBB1624B204653F82A208C
:102E78006149FFF74BFF0546B8F1000F05D0424600
:102E880020465849FFF742FF0544BBF1000FABD07D
:102E98005A4620465949FFF739FF0544A4E74FF041
:102EA800000BE1E706F00805E6E745469CE7BBF1BD
:102EB800010F069B06D1002B64D1049B002B7BD00D
:102EC80000250CE0002BF8D04D485CE04D48069BEF
:102ED80022464D4906F02BFD049B002B68D0DFF8F5
:102EE8002C81DFF82C91049F3146102F204628BFF3
:102EF80010274FF0000BFFF71BFF5D4545DC059BD6
:102F0800494620461A78FFF701FF4FF0010B1BF0E6
:102F1800070F03D141462046FFF7F8FE5F453BD92E
:102F2800059B4946204613F80B20FFF7EFFE0BF1EF
:102F3800010BBBF1100FEAD14FF0000B20463549C9
:102F4800FFF7E4FE5A46059B20469A5CA2F1200151
:102F58005F2928BF2E223049FFF7D8FE0BF1010B5D
:102F6800BBF1100F1DD01BF0070F03D141462046BF
:102F7800FFF7CCFE5F455A46E5D841462046FFF7A5
:102F8800C5FEEBE71F485546A1E741462046FFF737
:102F9800BDFE0BF1010BB0E720462049FFF7B6FE56
:102FA800C5E7059B3B440593049BDB1B04939AD11F
:102FB800BAF1000F7FF41FAF204609B0BDE8F04F0B
:102FC80007F015B92046054A0549FFF79FFE15E7A2
:102FD800F6C10000FAC10000CCBB0000F1C100003E
:102FE800D1C900001FC20000AC080020A8080020BA
:102FF80003C20000E0BB000023C2000029C2000099
:103008003FA2000011A200001940000036C20000D3
:103018002EC2000038C200003AC2000034C20000CC
:1030280042F20F7373B58B4228BF0B4605680446FE
:10303800052168460D4A05F087F906466368284663
:103048000B225B680A4907F0C4F863683246694690
:1030580028465B6807F0BDF863681B2228465B6852
:10306800044907F0B6F802B070BD00BF00C4000004
:1030780059C200003DC2000000210123064A9042C7
:1030880006D8064A01B901231360054B186070473A
:10309800012140085B00F2E740420F00A808002029
:1030A800AC080020F8B50D460446064F4618B44251
:1030B80001D12846F8BD14F8011BBB6801485B68BC
:1030C8009847F4E714B60000014B036000207047EE
:1030D80028BC000008B5044806F081FCBDE808409B
:1030E800024806F07CBC00BF9FC20000D4C20000AA
:1030F800014804F0B5BF00BF28BC000038B504463D
:1031080018B90F4B0F485B6898476168B1F5683F7D
:1031180010D0B1F5680F0DD00B4DA9420AD011F4AB
:103128006861206807D00146084807F09EFE002322
:103138002360656038BD142208F02BF8F9E700BF5A
:10314800F000002002C300002C5F5CA9D40D002011
:1031580008B560B34368B3F5683F0ED0B3F5680FA0
:1031680018D0144A934220D000684FF0FF324FF035
:10317800FF3304F06DF858B115E001220368D3E875
:10318800EF1F002903D1C3E8E02F0028F7D10AD1A7
:10319800002008BD0368084A1B7803F5807352F8BD
:1031A8002330002BF4D00548F3E70548F1E76FF426
:1031B800E040EEE72C5F5CA900000350E98FFFFFB9
:1031C800EA8FFFFF08B520B34368B3F5683F09D01D
:1031D800B3F5680F13D0114A93421DD0006804F06C
:1031E800AFF814E000220368D3E8EF1F012903D1E8
:1031F800C3E8E02F0028F7D109D0094808BD00210D
:103208000368084A1B7803F5807342F823100020EE
:10321800F4E76FF4E040F1E70348EFE72C5F5CA9BF
:10322800E98FFFFF00000350EA8FFFFF10B5044647
:1032380018B91D4B1D485B6898476368B3F5683F2C
:103248002FD0B3F5680F2CD0194A934219D12368AF
:1032580003BB4FF0FF324FF0FF332146154803F010
:10326800C9FF08B923681BB90F4B13485B68984717
:1032780014220021206807F08CFF4FF46863636014
:1032880008E0B3F5683F0DD83A2B03D040F6BA6290
:103298009342DED1206807F020FE636843F03A03CA
:1032A800636010BD054AF3E7F000002002C3000088
:1032B8002C5F5CA9D40D002028C300003A00003A16
:1032C80008B5064940231422054807F0C0FDBDE8AB
:1032D80008400449044804F035BF00BFD408002062
:1032E800D40D002030BC000044BC00002DE9F0479C
:1032F80006460C4600AF002936D0D1E90012E9464F
:103308008AB06D46A3684FF0050AA8461F48C5E96C
:103318000723C5E9050148F810AF002342464FF4DA
:1033280021511B48FFF712FCD4E90312CD4663690B
:10333800AD461848C5E90723C5E90501C5F810A039
:10334800002342464FF421511148FFF7FFFBCD46B9
:10335800E3690121104A0E4806F025FFA3690121FF
:103368000E4A0B4806F01FFF012E07D1EFF3058325
:103378000B4A31460648103B06F015FF21463046F9
:1033880003F08AFDBD46BDE8F08700BF55C30000C5
:10339800DCB8000084C30000B3C30000C2C300004F
:1033A800F0C3000030BFFFF7FDBF00BF2DE9F041BB
:1033B80005460B4EDFF82C80324606EB0807CC1B7F
:1033C8002046094907F0D8FEA01942460021083CCA
:1033D80007F0DFFE2C6707F10800BDE8F08100BFA9
:1033E80000000000040000000CB90000074A9368C0
:1033F80093F90E10002907DB526993421FBF044A54
:10340800536843F080535360704700BF1C1000207E
:1034180000ED00E070B52A4C06460D4629482A49B9
:1034280006F091FFA36ADB0647D52648274906F030
:103438008AFF1120A36A1C0704D52248244906F0F4
:1034480082FF12201E4CA36A990712D521491D48F4
:1034580006F079FF636BA26A120609D501211E4A9C
:10346800184806F0A0FE1EB1A36A23F08003A362E9
:103478001320134CA36ADE0704D51248174906F037
:1034880062FF1420A36A9C0604D50E48144906F06E
:103498005AFF15200A4B9A6AD10658BF9A6A9A6A47
:1034A800920642BF5A6A22F400525A629A6A42F05D
:1034B800FF029A6200232B7070BD1020BAE700BF8C
:1034C80000ED00E0DCB8000003C4000019C40000EF
:1034D8004CC400005FC4000077C400008DC4000025
:1034E800ACC4000010B5244C2449254806F02BFF35
:1034F800A36A99013ED52248224906F024FF1E20DE
:10350800A36ADA0104D51E481F4906F01CFF1F20D4
:10351800194CA36ADB0204D519481C4906F013FFAD
:103528000220A36A1C0304D51548194906F00BFFAD
:103538002120114CA36A590304D51148154906F0F6
:1035480002FF2220A36A9A0304D50D48124906F007
:10355800FAFE2320084CA36ADB0304D508480F4968
:1035680006F0F1FE2420A36A6FEA03436FEA1343CF
:10357800A36210BD1D20C3E700ED00E0DBC400001E
:10358800DCB80000F3C4000006C5000020C5000038
:103598004AC5000068C500008DC50000A7C5000029
:1035A80070B5294C06460D462848294906F0CBFE39
:1035B800A36AD9043CD52548264906F0C4FE17203D
:1035C800A36A1A0504D52148234906F0BCFE182031
:1035D8001D4CA36A9B0512D51C48204906F0B3FE72
:1035E800A36BA26A100409D501211D4A174806F0E9
:1035F800DAFD1EB1A36A23F40043A3621920124C1A
:10360800A36A590504D51148164906F09CFE1A20EC
:10361800A36ADA050ED50D48134906F094FE1B205F
:10362800094A936A43F47F43936200232B7070BD69
:103638001620C5E7A36A9B04F2D504480B4906F097
:1036480082FE1C20ECE700BF00ED00E0DCB80000C3
:10365800D2C50000E8C500004CC40000F9C5000050
:1036680012C6000027C6000042C60000ACC4000015
:103678002DE9F0418AB0654B0446D3F80480002652
:1036880000AFC8F3080586F31188BFF36F8F02F007
:103698007F43B3F17F4F07D102F00C03082B12D1FF
:1036A8005B495C4806F04FFE002634460023FB7158
:1036B800EB1E092B00F28980DFE803F00A7F827C89
:1036C80087878787878510074CBF0C460126EDE75B
:1036D8005149504806F037FE00234C4DFB71EB6A08
:1036E8009A0705D54D494B4806F02DFE002332E0D8
:1036F800EB6A002B01DA4A49F5E7EB6A5B00F5D57E
:103708004849444806F01FFE6B69A26943F4807378
:103718006B61BFF34F8FBFF36F8F6B6932F8022C69
:1037280023F480736B61BFF34F8FBFF36F8F4DF638
:1037380002739A4208D0AB6ADBB273B30120F91D59
:10374800FFF768FE034606E023680121364A314840
:1037580006F029FD2368FA79DAB907F1080504F1BA
:10376800200C2A4620686168083403C2644515465F
:10377800F7D17A6A002E44D0C2F3080121B96FEA62
:1037880052226FEA42227A62184607F10801FFF7CF
:10379800ADFD2837BD46BDE8F081AB6A13F47F4F15
:1037A80004D00120F91DFFF7FBFECBE7AB6AB3F5A8
:1037B800803F9BD3FFF796FEC4E70020F91DBFE7C3
:1037C8000020F91DEFE719498DE7194A18F4F87F29
:1037D800E8468AB0174B18BF13466A461649103D8B
:1037E800C2E905134FF400731384144BD56142F8F2
:1037F800103F00234FF411510648FFF7A7F9C546BB
:1038080074E722F4FF7222F00102BCE700ED00E049
:1038180088C60000DCB80000B3C60000CAC60000B5
:10382800EBC60000F9C6000018C7000034C7000046
:103838006FC600005AC6000058C700000400000107
:10384800064B5A6942F010025A615A6942F4806282
:103858005A615A6922F008025A61704700ED00E087
:10386800EFF30880EFF3098101B57246FFF700FF17
:1038780001BD00BF002080F31488BFF36F8F0020C4
:1038880080F30A8880F30B8802F0DCF800200E49E8
:103898000860BFF34F8F0D4880F3088800F02CF8BC
:1038A800202080F311880A484FF40061401880F303
:1038B8000988EFF314800221084380F31488BFF3CA
:1038C8006F8F00F003F9000094ED00E088230020DA
:1038D80048160020002318460649D1F89020C2F364
:1038E8000722934200DB7047C1F89830C1F8A00066
:1038F8000133F6E700ED00E010B572B6002484F35A
:103908001388FFF7E7FF23464FF0FF300C4A03F117
:1039180020010133102B42F82100F8D100234FF089
:10392800FF30074A03F160010133102B42F82100F0
:10393800F8D162B6BFF34F8FBFF36F8F10BD00BFD2
:1039480000E100E0084B9B6883420BD1EFF305834D
:1039580043B1064B5A6842F080525A605A6A22F4C0
:1039680000425A6207F0A3BB1C10002000ED00E0E3
:103978006FF00A01084A93689967084958674B68C5
:1039880043F080534B60002383F31188BFF36F8F9C
:103998009368986F704700BF1C10002000ED00E08E
:1039A800EFF31183202383F31288BFF36F8F4FF057
:1039B8000061084A53699360074A5160196F074AC2
:1039C800116000215A6F596782F31188BFF36F8F16
:1039D800704700BF1C10002000ED00E0F00D002033
:1039E8000E498A684FF030001044EFF3098C80E8E4
:1039F800F01F74467046FFF7D3FFA64607498A684A
:103A080002F1300090E8F01F8CF3098802F1000001
:103A180004B506F0A0FCBDE8044070471C10002067
:103A28001EF0040F0CBFEFF30880EFF309808169E3
:103A380011F8021C0229FFD001B506F079FC01BD7E
:103A480040B2002807DB01234109034A00F01F00A8
:103A5800834042F82130704700E100E040B200287E
:103A68000CDB01220649430900F01F008240203385
:103A780041F82320BFF34F8FBFF36F8F704700BF0C
:103A880000E100E0054B420953F82220012300F031
:103A98001F0003FA00F01040704700BF00E100E08B
:103AA80040B2002801F10101ACBF00F16040064BB3
:103AB8004FEA4111C9B2ABBF00F5614000F00F00F9
:103AC80080F800131954704714ED00E00B4A08B54C
:103AD8000B4B22F07F029A60BFF34F8FBFF36F8FBB
:103AE800D3F8882022F47002C3F8882003F0C0FAC3
:103AF80004F062F800F04CF803F0FAFA0000000055
:103B080000ED00E042F8203C009B0B4942F81C3CC9
:103B1800019B21F0010142F8183C029B42F8081C65
:103B280042F8143C4FF0807342F8043C0023203ADA
:103B380002654367704700BFD523000000B50D4BF1
:103B480015469860026F0C4B0E461A60036E83F39D
:103B58000B882C4686F309884FF00000074B9847DE
:103B680020464FF000014FF000024FF00003044CD4
:103B7800204700BF1C100020F00D002067A30000A4
:103B8800D52300001022014B1A61704700ED00E0B8
:103B9800002320210348C2180133452B82F8001363
:103BA800F9D1704700E100E008B5EFF30583064A54
:103BB800103B02EBC30152F8330049688847BDE85F
:103BC8000840FFF713BC00BF64B600001FB5094CDE
:103BD800094A23460121094800F012F900230393FA
:103BE800074B0121E41A01A80193029400F012F98D
:103BF80004B010BD000007200000002054BC0000E5
:103C08000002002010B50C7A0B6804F01F0223F0A4
:103C18001F031A43CB68640923F01F03054943EACD
:103C2800440343F00103C1F89800C1F89C20C1F88F
:103C3800A03010BD00ED00E010B50A4BD3F890306D
:103C4800C3F30723013B984208D901210346064ADA
:103C5800064806F0A8FA6FF0150010BDFFF7D2FF6E
:103C6800FBE700BF00ED00E06FC70000D4B800001C
:103C78002DE9F04F8946144606464FF00008514D8D
:103C880085B0C84527DAD6F804A0BAF1000F44D0A9
:103C9800BAF11F0F17D91AF01F0F14D1D6F800B0B8
:103CA8001BF01F0F0FD1584606F095FB07460AEB8D
:103CB8000B00013806F08FFB874210D06FF0150714
:103CC800414A3B4601E04346404A0121404806F04C
:103CD8006AFA6FF01504204605B0BDE8F08F17F1B9
:103CE800160FEDD0BC42EBDDC5F89870D5F89C10E6
:103CF800C5F89870D5F8A03021F01F0143F01F0BCC
:103D0800D6E900321A44994202F1FF3A1DD1D3454F
:103D180007D13146F8B206F067FB08F101080C3606
:103D2800AFE73146C5F89870D5F89C3022F01F02ED
:103D380003F01F031343C5F89C30E0B206F054FBB0
:103D480010F1160FC5D0441CE7E7C5F89870D5F8F0
:103D5800A020013B23F01F0302F01F021343D345A9
:103D68003146E0B2C5F8A030E8D006F03DFB10F1CE
:103D7800160FAED0C5F89870D5F89C209DF808307D
:103D88000BF1FF3B62F304038DF80830D5F8A0303F
:103D98009DF808205B0863F347128DF80820D6E9E0
:103DA80000321344009323F01F035B44A3EB0A0380
:103DB800013023F01F036946C0B20393FFF73CFFAD
:103DC800BEE700BF00ED00E0B8C7000095C70000DF
:103DD800D4B800000522044BC3F89420BFF34F8FDA
:103DE800BFF36F8F704700BF00ED00E0BFF35F8F38
:103DF8000022024BC3F89420704700BF00ED00E09A
:103E080010B5034C2278FFF733FF207010BD00BFB8
:103E18003B1200202DE9F74F294D8A4606464FF000
:103E28000008AB46274FD0451BDAD6F80490B9F105
:103E3800000F3FD031680846019106F0CCFA01998D
:103E4800044609EB0100013806F0C5FA84424FF038
:103E580014021D4B08D002FB08F36FF015024BF853
:103E6800032003B0BDE8F08F14F1160F2C60F8D0D2
:103E78001978A142F5DD02FB08B0C7F89840C7F8E9
:103E88009840D7F89C4000F10801007B64F30400D7
:103E98000871D7F8A0000C79400860F347140C713A
:103EA800D7F89C1021F01F016960D7F8A01021F005
:103EB8001F01296108F1010814350C36B3E700BF6A
:103EC800F40D002000ED00E03B120020F0B5414960
:103ED800414CD1F890302568C3F307239D4287B041
:103EE80075D80020FFF782FF3C4BC1F8C0308542EF
:103EF80016D13B4C01A82570FFF7E6F800250646C9
:103F0800384FAE4213D1002023783249D1F890209F
:103F1800C2F30722934254DBFFF75CFF00202FE037
:103F2800616801EB0011FFF76DFE0130DFE70199D1
:103F3800280101EB0513DA683A40B2F5001F21D0D9
:103F4800B2F5800F2BD0B2F5801F38D15A689B6824
:103F58000958013B22F01F0003440120844623F046
:103F68001F0340EA4C10CDE902218DF8100002A988
:103F780020780593FFF760FE00281DDA6FF0150022
:103F880007B0F0BD5A689B680958013B22F01F0032
:103F980003444FF0020C012023F01F03E1E75A68A5
:103FA8009B680958013B22F01F0003444FF0000CA6
:103FB800062023F01F03D4E723780133237001354B
:103FC8009FE7C1F89830C1F8A00001339EE74FF091
:103FD800FF30D5E700ED00E060BC0000AAFF440018
:103FE8003B1200200000F0FF08B5024B1B68984701
:103FF800002008BD080E0020034B044A186093787F
:1040080043F0020393707047080E00203000002030
:10401800F0B587B007460E461446002110226846C0
:104028001D4607F0B6F802238DF80230054B2A46E4
:1040380021466846CDE90476019304F04BFA07B0AF
:10404800F0BD00BF23A4000008B50649064821F0CA
:104058000701C1F1005202F5E02205F010FC002032
:1040680008BD00BF8F2300200C0E002000F01F02A7
:1040780040090DD001280DD1094B03EB8203D3F879
:10408800002222F0E04242EA0171C3F800127047B0
:10409800044BF2E70023803253F82230FFDE00BFE2
:1040A800002884500025845038B50124134B144D42
:1040B800C3F8004502230321C5F8D0360020FFF7D6
:1040C800D5FF20460321FFF7D1FFC5F80447214655
:1040D800C5F804492120C5F8004BFFF7C7FF214662
:1040E8002020FFF7C3FF21460B20FFF7BFFF214623
:1040F8000A20FFF7BBFF002038BD00BF00100050AA
:104108000040005007B50DF1070001F0C5FD114B47
:1041180098421CD14FF480620F4B1049C3F8B82560
:104128004FF40062C3F83C259DF8070006F057FCE1
:104138000B499DF8070006F04DFC01209DF807305B
:10414800984001F09DFD002003B05DF804FB6FF07E
:104158000B00F9E70000AD0B00A002502CA00250A4
:1041680028A10250052370B5144D154E2C78013442
:10417800B4FBF3F303EB8303E41A06F019FC114ACA
:10418800137823B156F82430C01A072814D94FF0F1
:104198005023D3F8141141B10021C3F81411D3F8F6
:1041A80014312C700CB9012313702C7806F000FC24
:1041B80046F82400012070BD0020FCE73D120020D5
:1041C800180E00203C12002048B1054B054A1B6818
:1041D800B3FBF2F35843044B43F00103184770470D
:1041E8004800002040420F0010B900000149024871
:1041F80005F0B1BE8CBC00002C0E00204FF47F03EC
:104208002DE9F041D3F830210646072A0D46D3F8A8
:10421800343120D1023B032B02D8124AD35CD3B1EC
:104228004FF050244FF0010800270520C4F81886E5
:10423800C4F8147606F0CCFB4046C4F8148606F0A1
:10424800C7FBC4F81476C4F8187630462B46BDE888
:10425800F041002118474FF050230022C3F81426DC
:10426800F3E700BFEEC7000073B5069CC4F307264A
:10427800304601F0DBF9E5B20146284606F0BBFB03
:10428800002201200A4BA40B04F0FC041A51094B2C
:10429800A84000938DF8042001F0F8FC304601F0A6
:1042A80079FB2946684601F0EDFD02B070BD00BFFC
:1042B80080A00250007001507FB52C4B01A90293D9
:1042C800002302A88DF80C3001F0D4FD284B984249
:1042D80048D101F041FB041E0BDA9DF8041002A836
:1042E80001F0D0FD01212346224A234805F05BFF57
:1042F80035E040F60703214D8DF80540AE68ADF86E
:1043080006307468019B14B96FF05704EAE7082176
:1043180028461B4AA047041EE4DB3369002BF3D070
:104328000122082128469847041EDBDB01209DF85E
:104338000430984001F0A4FC9DF805009DF8045055
:104348009DF8076006F01EFB0146284606F047FB6D
:104358000C4BB60045F000459D51002CC2D12046BB
:1043680004B070BD6FF01204BCE700BF00700150CC
:104378000000AD0BF2C70000ECB8000028B6000042
:104388009143000080A102502DE9F341144683684F
:104398001B690BB100229847C4F30726304601F089
:1043A8004DF90546304606F0EDFA4FF00008E7B241
:1043B8000146384606F023FB104B220E920043F8C4
:1043C8000280304601F032F90D4A4FEA943C0CF075
:1043D800FC0C47F0004342F80C300146384606F022
:1043E800F9FA084B05F1320200933046434601942E
:1043F800520006F0D1FA02B0BDE8F08180A1025067
:1044080080A0025071420000084B70B5C31A0D46D7
:1044180007499B10044659434022064806F019F8FC
:104428002B4601462046BDE8704018475C0E002028
:10443800B76DDBB6D8B50000402373B50B4C0093BD
:10444800041B0B460D460A49A41061430646094A57
:10445800094806F029F8011E05DA30462B4602B055
:10446800BDE87040184702B070BD00BF5C0E002068
:10447800B76DDBB619A50000D8B5000010B5EFF38D
:104488001184202383F31288BFF36F8F074A1368C0
:1044980023F00201DB07116002D4012006F064FB5F
:1044A80084F31188BFF36F8F10BD00BFFC0E00208E
:1044B8002DE9F8430022012106460520FFF7F0FA0E
:1044C800114801F0EFFB114B984219D101F0FAFBAA
:1044D80000244FF01C090C27DFF834803569414669
:1044E80009FB045005F037FD002807DB012307FB13
:1044F80004551C44042CAB67F0D10020BDE8F883B8
:104508006FF00400FAE700BF154600000000AD0B8D
:1045180098BC00001FB500220123CDE902236B4699
:10452800084ACDF800D0CDF804D005F0EAFF0028FD
:1045380005DB4FF480420023684602F061FF05B0B6
:104548005DF804FB4FA500000C22104B014602FB4E
:104558000033002030B4D3E91C521867EFF3118000
:10456800202484F31288BFF36F8F9C6F04F0C0047B
:1045780044F002049C6780F31188BFF36F8F1DB16C
:104588002B4630BC0248184730BC70475C0E0020F0
:10459800D8B5000010B4EFF31182202383F31288FA
:1045A800BFF36F8F1748016841F002040460C80721
:1045B80007D482F31188BFF36F8F012010BC01F07C
:1045C80099BB4FF05021D1F80C04D1F80C14C9074D
:1045D800EFD5EFF3118083F31288BFF36F8F0A4989
:1045E8008B6F03F0C00343F002038B6780F31188DD
:1045F800BFF36F8F82F31188BFF36F8F002010BC59
:10460800FFF7A2BFFC0E00205C0E0020062812D87F
:10461800DFE800F0040F1111110D0B00064B986F25
:1046280010F0070007D1FFF78FBF0220FBE7032038
:10463800F9E70120F7E770475C0E00202DE9F0410B
:10464800012207463649D1E8EF3FC1E8E02F0028AC
:10465800F9D133B9334934484B60CB608A6005F0EF
:104668008DFC7B1E012B2BD8012F07D14FF0502337
:10467800D3F81C3403F00303022B21D006F040FCCE
:104688000546F8B9294B1B78E3B14FF050230222B5
:104698000646C3F808234FF05024DFF89480D4F876
:1046A8001824D4F81834D20315D503F00303022BC9
:1046B80001D0012F0FD16DB386F31188BFF36F8F2F
:1046C800BDE8F081EFF31186202383F31288BFF34E
:1046D8006F8F0125DFE7C5B1304605F060FED4F8DD
:1046E8001835DBB2012BDAD1D4F80421002AD6D050
:1046F8000022C4F80421D4F804210222C4F81825A1
:104708002022C8F88021A360C9E70021212003F0F6
:104718008BF9E4E74FF050230222C3F80423CFE7D4
:10472800580E0020480E0020780E0020411300206B
:1047380000E100E008B5074806F03FFB38B106483D
:10474800FFF75AFC0448FDF73BFE002008BD6FF058
:104758001200FBE714B60000654700000A2838B5C8
:104768000446074D04D1AB680D2128465B6898477D
:10477800AB6803485B68E1B29847204638BD00BF84
:1047880014B60000F0B5406801F01F04057B87B03F
:1047980044EA45140569002D63D0B2F5001F00F105
:1047A800100506D12146284606F05EFA002007B01B
:1047B800F0BD0027B2F5800F01AE0197776039D1BF
:1047C800B3F1007F14BF052304238DF804300023C0
:1047D800CDE904630393836823FA01F111F0010121
:1047E8001AD1B2F1A07F17D104F01F03620903F1B7
:1047F80080032AD0012A3AD11E4A52F82330DB0717
:104808000AD40DF1030632462146284601F0A6FDDA
:10481800194B98421BD002962146284603AA01F05C
:1048280059FC164B98421FD101222146284601F017
:10483800F7FDBBE7B3F1C06F05D0B3F1007F14BF3C
:1048480001230223C1E70323BFE70D4AD5E7314619
:10485800284601F0DFFD094B9842DCD06FF00B00D1
:10486800A5E76FF08500A2E76FF015009FE751F804
:104878002330FFDE002884500400AD0B0000AD0B90
:104888000025845038B545682B69B3B110352846E2
:1048980001F0B0FD044680B90146284601F078FDD4
:1048A800084B98420BD122462846074901F050FD93
:1048B800224605210D20FFF7F3F8002038BD6FF0E0
:1048C8000400FBE70000AD0BD54800004209034691
:1048D80070B502D0012A17D070BD0D4E32695168EB
:1048E8000029F9D0012503F01F030C689D40002919
:1048F800F2D08A682A4002D030464B6898472CB1DB
:10490800236821461C46F2E7024EE7E72346F8E70C
:1049180000B60000ECB500002DE9F04340F2063582
:104928004668D00648BF0320337B02EA050558BF16
:10493800C2F3401087B001F01F07B5F5837F144616
:1049480047EA43178DF8030044D00FD8062D18D036
:1049580007D8B5B1022D3FD06FF0150007B0BDE8FC
:10496800F083B5F5807FF7D101250AE040F20222F5
:10497800954233D0B5F5407F32D0B5F5007FEBD105
:1049880002250123220303FA01F12BD573689960EC
:10499800326972BB07F01F037F0928D0012F75D138
:1049A8003C4A02EB830284F48033D2F80012C3F34A
:1049B8000043C4F3404444EA430421F4706144EAE8
:1049C800800421F00F0144EA05230B43C2F80032AA
:1049D8000020C3E70725D4E70425D2E70525D0E75B
:1049E8000325CEE7630344BF7368D960D0E72A4A3A
:1049F800D7E71036394630460DF1020201F0AEFC19
:104A080014F4403F80460CD13946304606F02AF966
:104A1800224B9845DCD130469DF8021001F0F4FC99
:104A2800D6E74FF0000901AB3946304603AACDE975
:104A38000439CDE90199CDF80C9001F04BFB174BE7
:104A4800984289D114F4003315D09DF8033084F4CA
:104A58008034C4F300448DF80E3039464B46304656
:104A680003AA8DF80C508DF80D4001F0EFFB0B4BAD
:104A78009842CDD070E7CDE9043339460DF10303F0
:104A8800304603AA039301F025FBF0E7803352F880
:104A98002330FFDE00288450002584500000AD0B31
:104AA80002780B69012A08D0022A08D04AB9064AB6
:104AB8001A6203F1100002F07FBC044AF8E7044AC6
:104AC800F6E7044AF4E700BF0000AD0B0100AE0BA7
:104AD8000200AE0B0100AD0B2DE9F04F89B002AF1B
:104AE800BB6043680546D3F828B09B8B0C463A61F7
:104AF800D0F810807B614FF0FF324FF0FF33404613
:104B080002F07EFC08F11003FB600026002300225F
:104B180008F1100002F074FC33463A69964201D35A
:104B2800002341E0207A010700F194803A690136B8
:104B3800964221680BD2820709D4227D80EA020CB2
:104B48000CF0010C02F004025CEA020C08D023B954
:104B580001F06042B2F1005F3FD04FF0000901E080
:104B68004FF001096268D7F814E003EB020CF44532
:104B780024D96C468CB0286802A9384DCA61C1E9AD
:104B880005537B690A46C1E9083040F203530B8597
:104B9800334B42F8103F00234FF451513148FDF791
:104BA800D5FF6FF01B03A5467B61404602F004FC6D
:104BB8007B691C371846BD46BDE8F08FC00705D491
:104BC8000BEB03007B6006F0D7FA7B6862681A4437
:104BD80093B2B9F1000F27D1D3B94FF00009D4F837
:104BE80000A0A388BA68217A28460092524600F0AD
:104BF80085F8031ED8DB4FF480420023F86802F0E2
:104C0800FFFB40B1284600F031F86FF00403CBE712
:104C18009946DA46E6E7D8F82030134A9342F4D1A9
:104C2800237ADB0702D400230C3476E7D345FAD184
:104C380023460AE0A9EB0201D8681FFA81F91AFA9B
:104C480081F17B6006F098FA7B685A680C3B9145C5
:104C5800F0D2E8E76FF08503A6E700BF79C8000047
:104C680006000001ACB800000000AD0B70B5446848
:104C780023682046D3F80855D3F80C6501F0F6FDF3
:104C88003146284602F08EF805460021606A05F094
:104C9800C2FC204601F0DAFD034B9D4214BF6FF0C1
:104CA8000F00002070BD00BF0000AD0B08B5CA079B
:104CB80043681BD4C1F3420102290AD003290CD04E
:104CC80001290ED14FF0CC721B680020C3F82425AF
:104CD80008BD4FF0C8621B68F7E74FF07F621B689A
:104CE800F3E70121034A044805F054FA6FF0150070
:104CF800EEE700BF5BC90000ACB80000F0B50C4699
:104D08001D46164689B04768122200210DF10E0093
:104D180006F03FFA04F001038DF80C30BDF8383086
:104D280004958DF80D30BB8D0696AB420AD210481B
:104D3800009301212B460F4A05F03FFA6FF01B0044
:104D480009B0F0BD84F00202C2F3400238465201B5
:104D580003A901F0A9FD084B984207D00B339842EC
:104D680014BF6FF004006FF00F00E9E70020E7E7D9
:104D7800ACB800006DC900000000AD0BB0B504462A
:104D8800456800AF2B6A98470121686A05F043FC23
:104D980023462846AA6905F1080101F01DFD114BBB
:104DA800984217D023686C4688B06A460E49C2E913
:104DB80005134FF4007393830C4B42F8103F0C48D3
:104DC80000234FF4E251FDF7C1FE6FF00400A54641
:104DD800BD46B0BD0121204605F02CFC00EAE0707C
:104DE800F6E700BF0000AD0BB4C9000003000001E6
:104DF800ACB8000010B504460269A2B0C2F8800041
:104E08001F49002001F03EFC002201212A20FEF764
:104E180047FE64688422002101A806F0BAF9636895
:104E2800B3F5803F04D30221164A174805F0B2F9BA
:104E38002368B3F5803F04D30221144A124805F0D1
:104E4800A9F900230120219301AA61680432D940FD
:104E5800C90744BF00FA03F142F8041C2168D9408D
:104E6800C90748BF00FA03F103F1010348BFD16342
:104E7800102BEAD101A801F01DFC002022B010BDC2
:104E8800714F0000D4C90000CCB8000000CA00006F
:104E980038B50F290C4605693CD843681B68CB40D8
:104EA800DB0737D5D5F88430CB4003F001031AB9B6
:104EB800EBB96FF077002CE0002BFAD155F82130D0
:104EC80023B90221154A164805F064F9D5F884304B
:104ED80013B92A20FEF7B4FD0122D5F88430A24088
:104EE8001343C5F88430E0B201F004FC0AE0C8B20C
:104EF80001F008FC0122D5F88430A24023EA02031D
:104F0800C5F88430D5F8843013B92A20FEF7A6FDF9
:104F1800002038BD6FF01500FBE700BF2CCA000069
:104F2800CCB8000038B505460C4622B102210C4A1F
:104F38000C4805F02FF90F2C0ED86B685B68E3401E
:104F4800DB0709D501230020A400E4B204F1A04442
:104F580004F52834236038BD6FF01500FBE700BF67
:104F68005CCA0000CCB8000070B5D1F880600F288A
:104F780004460D46736803D81B68C340DA0704D497
:104F880002210E4A0E4805F005F9D5F88430E340B1
:104F9800DB0704D402210B4A094805F0FBF805EBAE
:104FA800840255F824503DB121463046AC46BDE850
:104FB80070400023126C604770BD00BF77CA0000C4
:104FC800CCB8000093CA0000036803F01F025B0915
:104FD800026004D0012B034818BF00207047024824
:104FE800704700BF00288450002584502DE9F04FF9
:104FF8001546834640F2FF18DFF88891DFF888A14C
:1050080085B000EB8101594503D1002005B0BDE80A
:10501800F08FDBF80030C3F3C322082AC3F3080477
:1050280000F2AA801B0E444508BF4FF0FF3419F860
:105038000270222B00F2A380DFE803F012191F226E
:10504800252B22A1A1A1A13A67A1A1A1A1A1A1A15A
:10505800A1A16A7F8285A1A1A1888F9295989B00C2
:10506800C5F80C45601C5DD10BF1040BCBE7C5F806
:105078001445621CF8D000265DE0C5F80845F1E744
:10508800C5F81045F5E7631CC5F80845ECD00026BF
:1050980004E0661CC5F80C45E6D0012603A8039475
:1050A800FFF792FF0122039B02FA03F3C36008E0B3
:1050B800C5F80845002FDCD1631CD5D0002606278B
:1050C8003246DBF80030039403F40040002818BF90
:1050D800002203A818BF012601930092FFF774FF6E
:1050E800039C019B00EB8400D0F80042C3F3412CE1
:1050F800009A3B0243EA8C03134304EA0A0423435D
:1051080043EA4603C0F80032AEE7C5F80C45D1E7DC
:10511800C5F86045601CDBF80030A5D0C3F3004338
:10512800002BBAD0012603A80394FFF74DFF039B79
:1051380006FA03F383603246C3E7C5F86445E9E736
:10514800C5F86845E6E7C5F86C45E3E7C5F82445C2
:10515800621C89D001260022B3E7C5F8284581E7FB
:10516800C5F83045F4E7C5F83445F1E7C5F83845E2
:10517800EEE7C5F83C4575E76FF0150046E76FF0B8
:10518800850043E7C9CA0000F0F0FCFF2DE9F047AD
:1051980084B006460569406802AF83681B68984773
:1051A800041E09DA704A0121704804F0F3FF204612
:1051B8000837BD46BDE8F08740F608034FF4FA68A3
:1051C800AB8109234FF4FA70AB73A5F8108005F092
:1051D8006FFA70688368DB689847044608B1644AC8
:1051E800E1E7014601233A46304605F063FA0446F2
:1051F8000028DCD13B78242B09D0242201210092FD
:105208005A485C4A04F0D9FF6FF00404CFE7B6238C
:105218007B7001237E213046FA1805F07AFA04469D
:105228000028C4D1404605F043FA01237C213046CA
:10523800FA1C05F03FFA04460028B8D14FF47A79F1
:10524800FB787C2123F00103FB7030460123CDF865
:105258000090FA1C05F064FA04460028A7D1B8703B
:10526800012359213046BA1C05F053FA0446002898
:105278009DD1D6F80480B880D8F80C306D468AB035
:105288001B6802AA3C4951613C49C2E9061340F235
:10529800013313843A4B42F8103F4FF4145103463C
:1052A8003248FDF753FCA246AD462546D8F80C30E7
:1052B8009B689C4235D32C46002D7FF478AF0123A0
:1052C80059213046BA1CBB7005F023FA0446002861
:1052D8007FF46DAF0123212130463A1D05F0EAF92C
:1052E800044600287FF463AF3B7903F00F03012BDA
:1052F8003B7135D0013542F21070EDB205F0D8F9A6
:10530800102DE7D1FB787C2143F00103FB704FF4AB
:105318007A7330460093FA1C012305F001FA04461B
:1053280045E763097B7187F804A002235B213046B7
:10533800CDF800903A1D05F0F3F945B265B9D8F8F3
:105348000C305E215A6830464FF48073CDF80090D7
:10535800224405F0E5F945B204F58074A4B2A5E746
:105368000F2DCFD150E700BFD2CA00008CB8000083
:10537800EBCA000010CB000037CB000052CB000076
:10538800040000012DE9F04104460D46476805F088
:10539800B7FD4FF0200888B9264B1B7873B16426F7
:1053A800606805F0B2FAF0B9012005F011FB013E82
:1053B800F6D10021212002F037FBF0E7EFF3118648
:1053C800314688F31288BFF36F8F606805F09DFA45
:1053D800A8B986F31188BFF36F8FEFE786F31188BA
:1053E800BFF36F8FE5E7EFF31186314688F3128834
:1053F800BFF36F8F606805F088FA0028EED0FB696C
:1054080000201D706368FA691B68C3F844250122EF
:10541800C3F84825C3F82001D3F82041C3F8580140
:10542800D3F858019A6081F31188BFF36F8FBDE8F4
:10543800F08100BF41130020F7B505460022012185
:105448000820FEF72DFB0820FEF7FAFA6B681A69A8
:105458001868C0F82425997D5A7D0A43198B1B7D4D
:105468000B431343C0F86C356E68D6E9004313F05C
:10547800010350D02F6907F1080000F00DFC334BF1
:10548800984208D032480121324A04F083FE6FF076
:10549800040003B0F0BD387A04F10C0204F59071F1
:1054A80005F0A2FA387A012707FA00F000F0E8FBC5
:1054B8000823C4F80035F369C4F844350023C4F858
:1054C8004835A760D4F85831002BFBD00021C4F828
:1054D80000156B6801AADC68204605F0D6F800289C
:1054E80005DB019B226819791868FFF77FFD082101
:1054F8006A681368C3F80015117A51B9126AC3F8BB
:1055080034250122C3F83825C3F81011D3F8101137
:105518001A600020BDE70822C4F80025F269C4F823
:105528004425C4F848350123A360D4F82031002B62
:10553800FBD00023C4F82031D4F820310123E360E4
:105548004FF48073C4F80433BCE700BF0000AD0B10
:10555800F4B80000C6CC00000123834070B5DC43DA
:105568000B4AD2E8EF1F01EA0405C2E8E65F002E05
:10557800F7D14FF4803282400648C0F80823BFF3C1
:105588005F8FBFF36F8F0B4214BF0120002070BDE7
:10559800D80F00200050015070B40E4922F07F4609
:1055A800D1E90034D01AC31844F10004C1E9003429
:1055B800A6F50013B3F5400F09D2074B1B681A0A6A
:1055C8001B069C19054B42F10005C3E9004570BC58
:1055D80002F0CCBBE0060020DC0F0020E80600202B
:1055E800D9B101230D4A8340D2E8EFCF4CEA030C2E
:1055F800C2E8E1CF0029F7D14FF48033084A83404D
:10560800C2F80433074BD3E8AF3FC340DB0742BFC0
:105618004FF40012044BC3F800217047D80F002044
:1056280000500150D00F002000E100E0C3B2024852
:105638009B001844704700BF40510150024B00F5D1
:10564800A87053F820007047005001500D4B18689F
:10565800010A0006BFF35F8F0B4BD3F80435181807
:1056680041F10001B3F5801F0AD2084BD3E90023AA
:10567800904271EB030303D210F1807041F10001F5
:10568800704700BFDC0F002000500150E8060020E2
:105698002DE9F04F85B016461F4604469DF840A0F8
:1056A800FFF75AFF0190FFF7D1FFB04271EB0703F4
:1056B80052D23B4B301A67EB0101984271F100015D
:1056C8004DD2384B03EB0413D3E902239F4208BFA2
:1056D800964258D04FF48038334908FA04F82046E7
:1056E80026F07F4BC1F8488305F040F94FF00309D5
:1056F800584604F15005AD00ADB205F1502504F54A
:10570800A87305F580350293029A20F07F4341F88B
:105718002230C1F84483D1F80435244AC01A03382A
:1057280020F07F4090422ED9286868B1D1F804351E
:10573800A3EB0B0020F07F40B0F5000F039322D9B4
:10574800204605F013F9039BBAF1000F07D109EBC6
:10575800030009F10109D7E7BAF1000F09D06FF08A
:10576800150520460199FFF73BFF284605B0BDE81F
:10577800F08F01230E4AA340D2E8EF0F1843C2E886
:10578800E10F0029F8D107490E982301C8500F9B53
:1057980001EB04120025C2E902675360E1E700BF8C
:1057A80001008000C006002000500150FDFF7F006E
:1057B800D00F00207FB500254FF0FF304FF0FF31AC
:1057C8004FF480321C4C1D4B0226C4F80833C4F831
:1057D80048331B4BC4F80855C3E90201C4F8042335
:1057E800C3E906014FF400334FF40012C4F8043340
:1057F800144B0121C4F804631520C3F880212A46FC
:10580800FEF74EF91520FEF71BF901230322A360CA
:1058180023600D4B28461A600C4B0D4A1E600D4B39
:10582800CDE9015500930023FFF732FF3046FEF71C
:1058380005FF284604B070BD0050015003000F005A
:10584800C006002000E100E0D80F0020D40F00209F
:10585800FFFF7F00A15500002DE9F04F394B85B0BF
:10586800D3F8042392070BD5D3F8042142B10022C0
:10587800C3F80421344AD3F80431136801331360A0
:10588800324D0024A8464FF480362E4FD7F8043303
:1058980006FA04F919EA030F2ED00123A340DB43CB
:1058A8002B49D1E8EF2F02EA0300C1E8EC0FBCF165
:1058B800000FF6D122FA04F3DB0703D4254B53F883
:1058C8002430CBB1204605F051F8FFF7BFFEEFF3C7
:1058D80011832022029382F31288BFF36F8F08EBA3
:1058E800041CDCE902AB504571EB0B010BD2029BA7
:1058F80083F31188BFF36F8F103514B105B0BDE87D
:10590800F08F0124C2E70020D5E900134FF0FF32E1
:1059180003934FF0FF3328600A48CCE90223C0F80C
:105928004893204605F022F8029B83F31188BFF3C1
:105938006F8F0029E0D0039B524600935B4688474F
:10594800DAE700BF00500150DC0F0020C00600203D
:10595800D00F00204051015070B501240C4B18683D
:1059680090B1B0FA80F0C0F11F0004FA00F1C94309
:10597800D3E8EF2F02EA0105C3E8E65F002EF7D16E
:10598800C240D207EBD570BD6FF00B00FBE700BF3C
:10599800D40F00200123054A8340D2E8EF0F1843B3
:1059A800C2E8E10F0029F8D1704700BFD40F0020EA
:1059B80030B5431C124C85B005D08442A8BF0446BC
:1059C800012CB8BF0124FFF741FE0E4B0C4DD3E963
:1059D8000013401AB0F5000F0FD22218AA4228BFB0
:1059E8002A46002052180849CDE90100009143F1E8
:1059F8000003FFF74DFE05B030BD2A46F1E700BFB2
:105A0800FFFF7F00E0060020A155000008B5FFF762
:105A18001DFE024B1B68C01A08BD00BFE00600202F
:105A28004FF47F03D3F83021D3F83431072A05D156
:105A3800023B032B02D8024AD05C70470020704713
:105A480007CD000008B5FFF7EBFF58B1644BD3F85A
:105A5800202A3AB90D21C3F8201A0121C3F81C19CC
:105A6800C3F81C290022D30003F57F03D3F80013E1
:105A7800013107D0D3F800130132D3F80433202AB8
:105A88000B60F0D1FFF7CCFF002840F0A080FFF7B3
:105A9800C7FF40B1534B544AC3F830254FF0502349
:105AA8000122C3F858254FF47F03D3F83021D3F8E7
:105AB8003431072A09D1023B032B06D84B4AD35C61
:105AC8001BB100224A4BC3F84C25FFF7A9FF50B180
:105AD8004FF05023D3F80024D10742BF0022C3F867
