:020000040000FA
:10000000E8BF00205D440000AF2901004944000022
:1000100049440000494400004944000049440000AC
:100020000000000000000000000000000946000081
:100030004944000000000000C94500004944000098
:100040009147000091470000914700009147000050
:100050009147000091470000914700009147000040
:100060009147000091470000914700009147000030
:100070009147000091470000914700009147000020
:100080009147000091470000914700009147000010
:100090009147000091470000914700009147000000
:1000A00091470000914700009147000091470000F0
:1000B00091470000914700009147000091470000E0
:1000C00091470000914700009147000091470000D0
:1000D00091470000914700009147000091470000C0
:1000E00091470000914700009147000091470000B0
:1000F00091470000914700009147000091470000A0
:10010000914700009147000091470000914700008F
:10011000914700009147000091470000914700007F
:10012000914700009147000091470000914700006F
:10013000914700009147000091470000914700005F
:10014000914700009147000091470000914700004F
:0401500091470000D3
:100158004FF0FF0C1CEAD0521EBF1CEAD15392EAA2
:100168000C0F93EA0C0F6FD01A4480EA010C40027E
:1001780018BF5FEA41211ED04FF0006343EA5010D8
:1001880043EA5111A0FB01310CF00040B1F5000F1A
:100198003EBF490041EAD3715B0040EA010062F1C9
:1001A8007F02FD2A1DD8B3F1004F40EBC25008BFB3
:1001B80020F00100704790F0000F0CF0004C08BFD1
:1001C80049024CEA502040EA51207F3AC2BFD2F19E
:1001D800FF0340EAC250704740F400004FF00003AC
:1001E800013A5DDC12F1190FDCBF00F000407047E6
:1001F800C2F10002410021FA02F1C2F1200200FA24
:1002080002FC5FEA310040F1000053EA4C0308BFEA
:1002180020EADC70704792F0000F00F0004C02BF3B
:10022800400010F4000F013AF9D040EA0C0093F0B6
:10023800000F01F0004C02BF490011F4000F013B10
:10024800F9D041EA0C018FE70CEAD15392EA0C0F7E
:1002580018BF93EA0C0F0AD030F0004C18BF31F0E9
:10026800004CD8D180EA010000F00040704790F0BF
:10027800000F17BF90F0004F084691F0000F91F063
:10028800004F14D092EA0C0F01D142020FD193EA29
:100298000C0F03D14B0218BF084608D180EA0100B1
:1002A80000F0004040F0FE4040F40000704740F08D
:1002B800FE4040F44000704781F0004102E000BF7A
:1002C80083F0004330B54FEA41044FEA430594EA0E
:1002D800050F08BF90EA020F1FBF54EA000C55EA49
:1002E800020C7FEA645C7FEA655C00F0E2804FEA1A
:1002F8005454D4EB5555B8BF6D420CDD2C4480EAFC
:10030800020281EA030382EA000083EA010180EA2B
:10031800020281EA0303362D88BF30BD11F0004F79
:100328004FEA01314FF4801C4CEA113102D04042AF
:1003380061EB410113F0004F4FEA03334CEA1333EA
:1003480002D0524263EB430394EA050F00F0A78002
:10035800A4F10104D5F1200E0DDB02FA0EFC22FAFD
:1003680005F2801841F1000103FA0EF2801843FAF1
:1003780005F359410EE0A5F120050EF1200E012AE2
:1003880003FA0EFC28BF4CF0020C43FA05F3C01820
:1003980051EBE37101F0004507D54FF0000EDCF199
:1003A800000C7EEB00006EEB0101B1F5801F1BD342
:1003B800B1F5001F0CD349085FEA30004FEA3C0C46
:1003C80004F101044FEA445212F5800F80F09A803C
:1003D800BCF1004F08BF5FEA500C50F1000041EB40
:1003E800045141EA050130BD5FEA4C0C404141EB44
:1003F8000101013C28BFB1F5801FE9D291F0000F3F
:1004080004BF01460020B1FA81F308BF2033A3F1ED
:100418000B03B3F120020CDA0C3208DD02F1140CE4
:10042800C2F10C0201FA0CF021FA02F10CE002F11F
:100438001402D8BFC2F1200C01FA02F120FA0CFC18
:10044800DCBF41EA0C019040E41AA2BF01EB045161
:10045800294330BD6FEA04041F3C1CDA0C340EDC5F
:1004680004F11404C4F1200220FA04F001FA02F3A2
:1004780040EA030021FA04F345EA030130BDC4F160
:100488000C04C4F1200220FA02F001FA04F340EA55
:100498000300294630BD21FA04F0294630BD94F006
:1004A800000F83F4801306BF81F480110134013DED
:1004B8004EE77FEA645C18BF7FEA655C29D094EA5E
:1004C800050F08BF90EA020F05D054EA000C04BFDC
:1004D8001946104630BD91EA030F1EBF00210020C7
:1004E80030BD5FEA545C05D14000494128BF41F066
:1004F800004130BD14F580043CBF01F5801130BDCA
:1005080001F0004545F0FE4141F470014FF0000054
:1005180030BD7FEA645C1ABF194610467FEA655C05
:100528001CBF0B46024650EA013406BF52EA0335A7
:1005380091EA030F41F4002130BD00BF90F0000F95
:1005480004BF0021704730B54FF4806404F13204D1
:100558004FF000054FF0000150E700BF90F0000F8A
:1005680004BF0021704730B54FF4806404F13204B1
:1005780010F0004548BF40424FF000013EE700BF81
:1005880042004FEAE2014FEA31014FEA02701FBF11
:1005980012F07F4393F07F4F81F06051704732F043
:1005A8007F4208BF704793F07F4F04BF41F400219A
:1005B800704730B54FF4607401F0004521F00041F8
:1005C8001CE700BF50EA010208BF704730B54FF082
:1005D80000050AE050EA010208BF704730B511F083
:1005E800004502D5404261EB41014FF4806404F1BB
:1005F80032045FEA915C3FF4D8AE4FF003025FEA41
:10060800DC0C18BF03325FEADC0C18BF033202EBC4
:10061800DC02C2F1200300FA03FC20FA02F001FA1E
:1006280003FE40EA0E0021FA02F11444BDE600BFC1
:1006380070B54FF0FF0C4CF4E06C1CEA11541DBF70
:100648001CEA135594EA0C0F95EA0C0F00F0DEF83B
:100658002C4481EA030621EA4C5123EA4C5350EA20
:10066800013518BF52EA033541F4801143F4801371
:1006780038D0A0FB02CE4FF00005E1FB02E506F002
:100688000042E0FB03E54FF00006E1FB03569CF057
:10069800000F18BF4EF0010EA4F1FF04B6F5007F5D
:1006A80064F5407404D25FEA4E0E6D4146EB0606CF
:1006B80042EAC62141EA55514FEAC52040EA5E5058
:1006C8004FEACE2EB4F1FD0C88BFBCF5E06F1ED802
:1006D800BEF1004F08BF5FEA500E50F1000041EB39
:1006E800045170BD06F0004646EA010140EA0200E6
:1006F80081EA0301B4EB5C04C2BFD4EB0C0541EA08
:10070800045170BD41F480114FF0000E013C00F31C
:10071800AB8014F1360FDEBF002001F0004170BD40
:10072800C4F10004203C35DA0C341BDC04F1140459
:10073800C4F1200500FA05F320FA04F001FA05F2E5
:1007480040EA020001F0004221F0004110EBD370B2
:1007580021FA04F642EB06015EEA430E08BF20EADE
:10076800D37070BDC4F10C04C4F1200500FA04F381
:1007780020FA05F001FA04F240EA020001F0004113
:1007880010EBD37041F100015EEA430E08BF20EA86
:10079800D37070BDC4F1200500FA05F24EEA020ECE
:1007A80020FA04F301FA05F243EA020321FA04F0FD
:1007B80001F0004121FA04F220EA020000EBD370B4
:1007C8005EEA430E08BF20EAD37070BD94F0000FB4
:1007D8000FD101F00046400041EB010111F4801FE8
:1007E80008BF013CF7D041EA060195F0000F18BF99
:1007F800704703F00046520043EB030313F4801FD5
:1008080008BF013DF7D043EA0603704794EA0C0F8E
:100818000CEA135518BF95EA0C0F0CD050EA4106A4
:1008280018BF52EA4306D1D181EA030101F0004121
:100838004FF0000070BD50EA410606BF1046194649
:1008480052EA430619D094EA0C0F02D150EA013655
:1008580013D195EA0C0F05D152EA03361CBF104696
:1008680019460AD181EA030101F0004141F0FE4135
:1008780041F470014FF0000070BD41F0FE4141F4B9
:10088800780170BD70B54FF0FF0C4CF4E06C1CEAB9
:1008980011541DBF1CEA135594EA0C0F95EA0C0F6E
:1008A80000F0A7F8A4EB050481EA030E52EA033529
:1008B8004FEA013100F088804FEA03334FF080554A
:1008C80045EA131343EA12634FEA022245EA111577
:1008D80045EA10654FEA00260EF000419D4208BF28
:1008E800964244F1FD0404F5407402D25B084FEAD5
:1008F8003202B61A65EB03055B084FEA32024FF481
:1009080080104FF4002CB6EB020E75EB030E22BFDD
:10091800B61A754640EA0C005B084FEA3202B6EB9D
:10092800020E75EB030E22BFB61A754640EA5C004C
:100938005B084FEA3202B6EB020E75EB030E22BFDC
:10094800B61A754640EA9C005B084FEA3202B6EBDD
:10095800020E75EB030E22BFB61A754640EADC009C
:1009680055EA060E18D04FEA051545EA16754FEAFE
:1009780006164FEAC30343EA52734FEAC2025FEA1C
:100988001C1CC0D111F4801F0BD141EA00014FF0AB
:1009980000004FF0004CB6E711F4801F04BF01437C
:1009A8000020B4F1FD0C88BFBCF5E06F3FF6AFAE98
:1009B800B5EB030C04BFB6EB020C5FEA500C50F128
:1009C800000041EB045170BD0EF0004E4EEA1131AB
:1009D80014EB5C04C2BFD4EB0C0541EA045170BDB2
:1009E80041F480114FF0000E013C90E645EA060EF6
:1009F8008DE60CEA135594EA0C0F08BF95EA0C0F24
:100A08003FF43BAF94EA0C0F0AD150EA01347FF46B
:100A180034AF95EA0C0F7FF425AF104619462CE742
:100A280095EA0C0F06D152EA03353FF4FDAE1046A5
:100A3800194622E750EA410618BF52EA43067FF4F6
:100A4800C5AE50EA41047FF40DAF52EA43057FF486
:100A5800EBAE12E74FF0FF3C06E000BF4FF0010C91
:100A680002E000BF4FF0010C4DF804CD4FEA410CF5
:100A78007FEA6C5C4FEA430C18BF7FEA6C5C1BD0C2
:100A880001B050EA410C0CBF52EA430C91EA030F43
:100A980002BF90EA020F0020704710F1000F91EAA0
:100AA800030F58BF994208BF90422CBFD8176FEA6E
:100AB800E37040F0010070474FEA410C7FEA6C5C3C
:100AC80002D150EA013C07D14FEA430C7FEA6C5C43
:100AD800D6D152EA033CD3D05DF8040B704700BF6F
:100AE8008446104662468C461946634600E000BFBD
:100AF80001B5FFF7B7FF002848BF10F1000F01BD8F
:100B08004DF808EDFFF7F4FF0CBF012000205DF859
:100B180008FB00BF4DF808EDFFF7EAFF34BF0120DE
:100B280000205DF808FB00BF4DF808EDFFF7E0FF77
:100B380094BF012000205DF808FB00BF4DF808EDC8
:100B4800FFF7CEFF94BF012000205DF808FB00BF2F
:100B58004DF808EDFFF7C4FF34BF012000205DF811
:100B680008FB00BF4FEA4102B2F1E04324BFB3F5EE
:100B7800001CDCF1FE5C0DD901F0004C4FEAC0020C
:100B88004CEA5070B2F1004F40EB830008BF20F0F0
:100B98000100704711F0804F21D113F13872BCBFAA
:100BA80001F00040704741F480114FEA5252C2F1FF
:100BB8001802C2F1200C10FA0CF320FA02F018BF48
:100BC80040F001004FEAC1234FEAD32303FA0CFC9B
:100BD80040EA0C0023FA02F34FEA4303CCE77FEA2A
:100BE800625307D150EA01331EBF4FF0FE4040F474
:100BF8004000704701F0004040F0FE4040F4000023
:100C0800704700BF80F0004002E000BF81F0004163
:100C180042001FBF5FEA410392EA030F7FEA226C9A
:100C28007FEA236C6AD04FEA1262D2EB1363C1BF2A
:100C3800D218414048404140B8BF5B42192B88BF99
:100C4800704710F0004F40F4000020F07F4018BFBC
:100C5800404211F0004F41F4000121F07F4118BFDC
:100C6800494292EA030F3FD0A2F1010241FA03FC84
:100C780010EB0C00C3F1200301FA03F100F000436C
:100C880002D5494260EB4000B0F5000F13D3B0F134
:100C9800807F06D340084FEA310102F10102FE2AA3
:100CA80051D2B1F1004F40EBC25008BF20F0010013
:100CB80040EA03007047490040EB0000013A28BFB2
:100CC800B0F5000FEDD2B0FA80FCACF1080CB2EB35
:100CD8000C0200FA0CF0AABF00EBC25052421843B3
:100CE800BCBFD0401843704792F0000F81F4000158
:100CF80006BF80F400000132013BB5E74FEA41032B
:100D08007FEA226C18BF7FEA236C21D092EA030F96
:100D180004D092F0000F08BF0846704790EA010F10
:100D28001CBF0020704712F07F4F04D1400028BF3D
:100D380040F00040704712F100723CBF00F500001F
:100D4800704700F0004343F0FE4040F40000704755
:100D58007FEA226216BF08467FEA23630146420201
:100D680006BF5FEA412390EA010F40F48000704714
:100D78004FF0000304E000BF10F0004348BF4042BA
:100D88005FEA000C08BF704743F0964301464FF0F6
:100D980000001CE050EA010208BF70474FF0000352
:100DA8000AE000BF50EA010208BF704711F0004393
:100DB80002D5404261EB41015FEA010C02BF844663
:100DC8000146002043F0B64308BFA3F18053A3F5C2
:100DD8000003BCFA8CF2083AA3EBC25310DB01FA09
:100DE80002FC634400FA02FCC2F12002BCF1004F8D
:100DF80020FA02F243EB020008BF20F0010070471E
:100E080002F1200201FA02FCC2F1200250EA4C0071
:100E180021FA02F243EB020008BF20EADC707047B7
:100E28007BB972B90029BEBF00204FF0004106E02F
:100E380008BF00281CBF6FF000414FF0FF3000F0E2
:100E480057B8ADF1080C6DE904CE002909DB002B79
:100E58001ADB00F069F8DDF804E0DDE9022304B0EC
:100E68007047404261EB4101002B1BDB00F05CF84E
:100E7800DDF804E0DDE9022304B0404261EB410102
:100E8800524263EB43037047524263EB430300F063
:100E98004BF8DDF804E0DDE9022304B0404261EBE1
:100EA80041017047524263EB430300F03DF8DDF81F
:100EB80004E0DDE9022304B0524263EB43037047C8
:100EC80053B94AB9002908BF00281CBF4FF0FF31A9
:100ED8004FF0FF3000F00CB8ADF1080C6DE904CE0E
:100EE80000F022F8DDF804E0DDE9022304B07047E1
:100EF800704700BF10F8012B11F8013B012A28BFE9
:100F08009A42F7D0D01A7047034611F8012B03F81C
:100F1800012B002AF9D17047034613F8012B002A48
:100F2800FBD1181A013870472DE9F04786468C46E0
:100F38000846089E154674461946002B40F0C180A5
:100F48008542B2FA82F245D94AB1C2F1200300FAC9
:100F580002FC954094402EFA03F343EA0C0C4FEA46
:100F6800154EA8B2230CBCFBFEF80EFB18CC08FBF0
:100F780000F943EA0C43994528D9EB1808F1FF37E3
:100F880004D2994502D9A8F102072B44A3EB09031F
:100F9800A4B2B3FBFEFC0EFB1C330CFB00F044EACE
:100FA8000344A04214D92C190CF1FF3304D2A042F7
:100FB80002D9ACF102032C44241A43EA07401EB1BB
:100FC800D440002334607360BDE8F0874746DDE70E
:100FD8006346F1E792BB431B01214FEA154EAFB2BE
:100FE800200CB3FBFEFC0EFB1C330CFB07F840EA9D
:100FF8000343984561D9EB180CF1FF3004D29845AA
:1010080002D9ACF102002B44A3EB0803A4B2B3FB52
:10101800FEFC0EFB1C330CFB07F744EA0344A74213
:101028004DD92C190CF1FF3304D2A74202D9ACF1E7
:1010380002032C44E41B43EA0040C0E7C2F120034A
:101048009540944020FA03F12EFA03F34FEA154E27
:101058009040AFB20343B1FBFEFC0EFB1C10190C11
:101068000CFB07F841EA0041884522D969180CF1C0
:10107800FF3004D2884502D9ACF102002944A1EB23
:1010880008019BB2B1FBFEFC0EFB1C110CFB07F721
:1010980043EA01439F420ED9EB180CF1FF3104D209
:1010A8009F4202D9ACF102012B44DB1B41EA00410B
:1010B80093E76046E3E76146F7E76046A4E76346DF
:1010C800B8E7834206D916B9002108467CE7C6E985
:1010D80000E0F9E7B3FA83F78FB9834201D3724589
:1010E80008D8BEEB020460EB030301209C461EB93E
:1010F800002169E73846FAE7C6E9004CF8E7C7F186
:10110800200CBB400EFA07F522FA0CF42EFA0CF16B
:10111800BA401C4320FA0CF3B8404FEA1449014383
:101128001FFA84FEB3FBF9F809FB18300B0C08FB17
:101138000EFA43EA00439A4540D9E31808F1FF3014
:1011480004D29A4502D9A8F102002344A3EB0A036A
:1011580089B2B3FBF9F809FB183308FB0EFE41EA24
:1011680003418E452CD9611808F1FF3304D28E450E
:1011780002D9A8F10203214443EA0040A1EB0E0181
:10118800A0FB02984145CE46434602D306D14D45C1
:1011980004D20138B9EB020E68EB0403002EA7D085
:1011A800B5EB0E0261EB030101FA0CFC22FA07F31E
:1011B800F9404CEA0303C6E9003199E74046C5E720
:1011C8004346D9E7000000002DE9F843044640688B
:1011D800FFF7C4F92EA3D3E90023FFF753FB064614
:1011E80020680F46FFF7BAF902460B4630463946E3
:1011F800FFF768F8FFF7B6FC0746E068FFF7AEF9B7
:1012080023A3D3E90023FFF73DFB8046A068894666
:10121800FFF7A4F902460B4640464946FFF752F845
:10122800FFF7A0FC06466069FFF798F918A3D3E911
:101238000023FFF727FB804620698946FFF78EF9D0
:101248000B46024649464046FFF73CF8FFF78AFC42
:10125800394605463846FEF77BFF31460446304698
:10126800FEF776FF01462046FFF7D2FC29460446E2
:101278002846FEF76DFF01462046FFF7C9FCFFF739
:101288007FF9BDE8F8430FF045BC00BFAFF300801D
:101298000000000080842E412DE9F04114460569C4
:1012A800B9B9B5F90000297B714D80FB0101A0FB9C
:1012B800050647F6FF72002305FB0161FFF7B0FD45
:1012C80000236C4AFFF7ACFD206062600020BDE897
:1012D800F0810139062900F2C280DFE801F0040735
:1012E8000A4865686B00B5F90200DCE7B5F9040047
:1012F800D9E7B5F90000297B5D4E80FB0101A0FB11
:10130800060747F6FF72002306FB0171FFF788FD09
:101318000023584AFFF784FDC4E90002B5F902002A
:10132800297B47F6FF7280FB0101A0FB060700231B
:1013380006FB0171FFF774FD00234E4AFFF770FDAD
:10134800C4E90202B5F90400297B47F6FF7280FB65
:101358000101A0FB0605002306FB0151FFF760FD14
:101368000023444AFFF75CFD20616261AEE7B5F9EE
:1013780006302A8A83FB02523F4BA5FB035603FB28
:10138800026639A3D3E9002328463146FFF748FD12
:101398000023206031462846384AFFF741FD0023E4
:1013A800344AFFF73DFD90E7B5F90830E1E7B5F9B4
:1013B8000A30DEE7B5F906702B8A2F4E87FB0373D8
:1013C800A7FB067806FB038827A3D3E90023384642
:1013D8004146FFF725FD0023206041463846274A4D
:1013E800FFF71EFD0023234AFFF71AFD6260B5F9D7
:1013F80008702B8A87FB0373A7FB067806FB038814
:1014080019A3D3E9002338464146FFF709FD002315
:10141800A06041463846194AFFF702FD0023154AE5
:10142800FFF7FEFCE260B5F90A302A8A83FB025214
:10143800A5FB065306FB02360BA3D3E90023284677
:101448003146FFF7EDFC00232061314628460B4A60
:10145800FFF7E6FC0023074AFFF7E2FC85E76FF099
:10146800850034E7AFF30080006BC53F5D050000E1
:101478003AA3950040420F00D8EF2F004CFF5900C7
:101488002DE9FF47054690460C46D0F8109021B943
:101498001AB9002004B0BDE8F0870123402128468E
:1014A8000DF10E0213F07FF80028F3D101237D21FE
:1014B80028460DF10F0213F076F80028EAD1FCB99E
:1014C800B8F1000FE5D099F80D20D8F80030072AB8
:1014D80000F25881102B00F0768100F36881013BFF
:1014E800072B00F27881072B00F27581DFE813F0F3
:1014F8006901670173015D017301730173016D0176
:101508006068FFF72BF8B6A3D3E90023FFF7BAF911
:10151800064620680F46FFF721F802460B4630467C
:101528003946FEF7CFFE9DF80E400022AE4B064628
:101538000F469DF80FA004F0F004FFF7FFFA40B142
:10154800002230463946A94BFFF7E4FA002840F05C
:101558001381002230463946A44BFFF7EFFA40B119
:10156800002230463946A24BFFF7D4FA002840F053
:10157800FD800022304639469D4BFFF7DFFA40B127
:101588000022304639469B4BFFF7C4FA002840F04A
:10159800E780002230463946964BFFF7CFFA40B134
:1015A800002230463946944BFFF7B4FA002840F041
:1015B800D1800022304639468F4BFFF7BFFA40B141
:1015C8000022304639468D4BFFF7A4FA002840F038
:1015D800BB80002230463946884BFFF7AFFA40B14E
:1015E800002230463946864BFFF794FA002840F02F
:1015F800A580002230463946814BFFF79FFA40B15B
:101608000022304639467F4BFFF784FA002840F025
:101618008F800022304639467A4BFFF78FFA38B16F
:10162800002230463946784BFFF774FA002879D102
:10163800002230463946744BFFF780FA38B1002251
:1016480030463946714BFFF765FA002864D100220D
:10165800304639466D4BFFF771FA38B100223046F3
:1016680039466B4BFFF756FA00284FD10022304617
:101678003946674BFFF762FA30B1002230463946E7
:10168800644BFFF747FAD8BB002230463946614B16
:10169800FFF754FA78B30C2044F00C044AF0040A1B
:1016A80044F080048DF80FA08DF80E4089F80D00E5
:1016B800B8F1000F7FF407AF0123402128460DF150
:1016C8000E0212F09FFF00287FF4E4AE4FF4E170A1
:1016D80012F067FF9DF80F307D2103F00F038DF89E
:1016E8000F304FF47A73284600930DF10F0201234F
:1016F80012F08FFFCEE60AF0FB0A04F07F04D1E770
:101708000B2044F00B044AF0040AC9E70A2044F00D
:101718000A044AF0040AC3E7092044F009044AF01D
:10172800040ABDE7082044F008044AF0040AB7E7B1
:10173800072044F007044AF0040ADEE7062044F0D4
:1017480006044AF0040AD8E7052044F005044AF0E4
:10175800040AD2E7042044F004044AF0040ACCE75F
:10176800032044F003044AF0040AC6E7022044F0C8
:1017780002044AF0040AC0E7012044F001044AF0D8
:10178800040ABAE7022B1AD0042B1AD0012B0CBF7B
:10179800022303239DF80E201B0122F0300203F0E0
:1017A800300313438DF80E3086E70223F2E7402B0F
:1017B8000DD0802B0DD0202B0DD10523EAE7012376
:1017C800E8E70023E6E70423E4E70323E2E7062348
:1017D800E0E70723DEE76FF085005BE6AFF3008004
:1017E8000000000080842E410000E93F0000F93F1E
:1017F800000009400000194000002940000039405D
:10180800000049400000594000006940000079404C
:1018180000008940000099402DE9FF4705469046A1
:101828000C46D0F8109021B91AB9002004B0BDE8D0
:10183800F0870123422128460DF10E0212F0B3FE73
:101848000028F3D101237D2128460DF10F0212F063
:10185800AAFE0028EAD1A4B9B8F1000FE5D0D8F85B
:101868000030022B00F0F780043B18BF01235B0017
:101878009DF80E2022F0300242EA03138DF80E3054
:101888009BE06068FEF76AFE75A3D3E90023FEF7C4
:10189800F9FF064620680F46FEF760FE02460B4633
:1018A80030463946FEF70EFD9DF80E4000226E4B7D
:1018B80006460F469DF80FA004F0F004FFF73EF926
:1018C80040B1002230463946684BFFF723F900281B
:1018D80040F0BB80002230463946644BFFF72EF9B2
:1018E80040B1002230463946614BFFF713F9002812
:1018F80040F0A5800022304639465D4BFFF71EF9BF
:1019080040B10022304639465A4BFFF703F9002808
:1019180040F08F80002230463946564BFFF70EF9CB
:1019280038B1002230463946534BFFF7F3F8002808
:1019380079D10022304639464F4BFFF7FFF838B1CE
:101948000022304639464D4BFFF7E4F8002864D1B1
:10195800002230463946494BFFF7F0F838B10022EB
:1019680030463946464BFFF7D5F800284FD10022BC
:1019780030463946424BFFF7E1F830B10022304695
:101988003946404BFFF7C6F8D8BB002230463946E7
:101998003C4BFFF7D3F878B30D2044F00D044AF020
:1019A800020A44F0C0048DF80FA08DF80E4089F8A3
:1019B8000E00B8F1000F7FF452AF012342212846F0
:1019C8000DF10E0212F01EFE00287FF42FAF4FF427
:1019D800E17012F0E6FD9DF80F307D2103F00F0352
:1019E8008DF80F304FF47A73284600930DF10F02EB
:1019F800012312F00EFE19E70AF0FD0A04F03F0475
:101A0800D1E70C2044F00C044AF0020AC9E70B2085
:101A180044F00B044AF0020AC3E70A2044F00A041F
:101A28004AF0020ABDE7092044F009044AF0020A14
:101A3800B7E7082044F008044AF0020AB1E7072093
:101A480044F007044AF0020AD8E7062044F00604E6
:101A58004AF0020AD2E701230AE700BFAFF3008089
:101A68000000000080842E410000394000004940F9
:101A7800000059400000694000007940000089409A
:101A8800000099400000A94008B500F05FF900F097
:101A980009F800F03DF802480DF000FF002008BDED
:101AA800E878010010B5094C204613F012FF50B138
:101AB8002269A1681368204643F0805313600B68BD
:101AC800034A1C219847002010BD00BFC8670100C9
:101AD80001000A0038B50C4D0C4C4FF0FF334FF0A5
:101AE800FF3228460CF096FC01221C2120460FF0FC
:101AF800F8F800214FF420300DF000FA00221C21E4
:101B080020460FF0EEF8E8E750050020C86701000E
:101B180030B51748174C87B0206013F0DAFE38B993
:101B28002368154819680DF0A7FE002007B030BDDE
:101B3800216812480A680DF09FFE00250223CDE9AE
:101B480000356423CDE9023501236A462068072160
:101B5800CDE904350FF0D5F8206804AA06210FF066
:101B6800D0F82946206802AA0FF0CBF8DDE700BFBD
:101B78004068010060170020247901003C790100C9
:101B88002DE9F04F494E87B030680FF0C6F84FF492
:101B9800004000210DF0B2F94FF00008DFF8109175
:101BA80000214FF4A4700DF0A9F930680FF0B5F8D2
:101BB800306883686A461B69032198476846FFF7BF
:101BC80003FB04460D4602460B463A480DF054FE08
:101BD800002220462946384BFEF79CFF374F30B18C
:101BE80001233B7014F075FA35480DF057FE3B7829
:101BF800002BD5D0002220462946324BFEF7A8FFFD
:101C08000028CDD030480DF049FE00233B704FF43A
:101C18007A7714F05EFABB46A0FB070507FB01556F
:101C2800C40BDFF8A8A044EA4544ED0B14F051FAC0
:101C380040F6B832A0FB0B0307FB0131C30B43EAA4
:101C480041431B1B4FEAD13161EB0501934271F10E
:101C5800000118DA00214FF400400DF04FF9306808
:101C68000FF05BF8306883686A461B690321984760
:101C78006846FFF7A9FA42464B46FEF769FF80B16E
:101C880013480DF00BFE9AF80030002B88D011484D
:101C98000DF004FE10480CF099FB00238AF8003080
:101CA8007EE701238AF80030C0E700BF60170020F4
:101CB8000000284052790100000014407F230020D2
:101CC8006B79010000003940897901007E230020EA
:101CD800A2790100D47901005005002003460121B2
:101CE800014A024810F042B9EF790100446B010043
:101CF80010B50446084619B1BDE81040FFF7EEBF1D
:101D08000321054A054810F028F9204611F094FAF5
:101D1800034B186010BD00BF037A0100446B01003B
:101D28006417002008B50B4605480321054A10F042
:101D38001DF9054B1868BDE8084005F0BDBF00BF98
:101D4800446B01000D7A01006417002013B50321CC
:101D5800184A194810F001F9184806F0DBFA03216F
:101D6800174A154810F0F9F8002004F08FFD0346D3
:101D780040B1144A0121104810F0F8F84FF0FF3034
:101D880002B010BD012403210F4A0B4810F0E5F8FA
:101D98000E4B02220E490F48009405F0C7FB03467C
:101DA80008B10D4AE6E703210C4A034810F0D5F8BC
:101DB800E4E700BF257A0100446B010070010020B0
:101DC8003A7A01004A7A0100697A0100786F0100C5
:101DD800806F0100906F01007F7A0100A47A0100F2
:101DE8002DE9F04F91B0009302F004030293C2F37F
:101DF800C2030133840705460E46DDF86890039256
:101E0800059340F0BB81041D30B1072909D86FF054
:101E18001B0011B0BDE8F08F01F00706341DC6F1B4
:101E28000806009B4FF000084FF0040A591E4FF0B7
:101E3800FF3347460193C3465346CDF810800DB192
:101E4800009A22600598002800F3E8809848009AD4
:101E5800824203D397488242C0F0E080039AA4EB01
:101E6800050E92074FEA9E0000F103810F2F00F242
:101E7800B180002D00F0058107F140020DEB020C46
:101E8800019A0CF8200C0CF8102C049801300490DE
:101E9800E7E07A285DD84B280ED8472859D8292852
:101EA8002DD8252852D054D820287AD02338D0F1DC
:101EB800000B4BEB000B74E04C382E2849D8DFE8B8
:101EC80000F07048484848484848484848484B48FF
:101ED8004848484848484859484B4B595959704B05
:101EE8006D487048184B184848827F4B48484B4803
:101EF8007F0000204FF0000B4FF0040A38E0012269
:101F08002A38C0B202FA00F010EA0E0F49D110F0D8
:101F1800625C2FD110EA020B43D06046013C544466
:101F2800B4FBFAF40AFB04F4002D61D0A3EB050C12
:101F3800A444B4453FF66BAF002868D1042B47D1C1
:101F480059F8043B2360042304342AE0019A013A37
:101F580001924FF0000B24E011F8010C6C2834D1E9
:101F6800002011F8023C83466C2BC5D14FF0080ABB
:101F78005346D3E709F1070929F00709073424F084
:101F88000704F9E802AB35B106982044B0423FF6A1
:101F98003EAFC4E900AB4FF0000B08344FF0080A1D
:101FA800534611F8010F002878D0BBF1000F7FF4D9
:101FB80070AF2528F5D14FF0010B019B0133019338
:101FC8004FF0040AECE7584694E700208346A5E75B
:101FD800082B02D06FF015001BE709F1070929F05B
:101FE8000709F9E80223C4E9002308230834D8E7DD
:101FF80068B9042B02D109F10409A4E7082BE9D137
:1020080009F1070929F0070909F10809EDE7059A17
:10201800013A059259F8042B009210E7039A9007A9
:1020280020D54FF0010CA4EB050E4FEA9E00BEF53B
:10203800007FCFD20F2FCDD8F5B107F140020DEBBD
:10204800020E019AC0B20EF8200C0EF8102CBCF14A
:10205800000F3FF41AAF60F07F000EF8200C08F173
:1020680001080137C5F108024FF6DA7E04340692FA
:1020780097E74FF0000CDAE7BCF1000F01D001360A
:10208800EFE7029802360028EBD10098CDE9063137
:10209800FEF742FFDDE906310644E2E7631BB3F5CC
:1020A800806F97D245B9A6F10804E018B1E600BFE1
:1020B800E0660100FCA00100029A9B0828602B70D2
:1020C8009DF81030C2B1EB7085F80280B8F1000FAE
:1020D80005D0002208A8C5F1010C97420ED14FF097
:1020E800000AC5F101030DF1200901930DF1300B30
:1020F800574512D1601B8CE66B70E5E710F8013B81
:10210800190608D504EB0C0EB64503F07F033FF61D
:102118007EAE04F8013B0132DFE7B8F1000F03D0CF
:1021280099F90020002A17DB029BD3B11AF80B207B
:1021380004F8012B0022019B98182044B0423FF676
:1021480066AE99F80000009904F8010B2046039246
:1021580014F0ACF8039A14440AF1010A09F10109D0
:10216800C6E799F8002055F822300093029B0098A2
:1021780045F82230FEF7D0FE421CDCE76FF00D0078
:1021880047E600BF2DE9F04F97B000AFD7F880B011
:102198003B62CBF3C0030446894690F802A0FA627A
:1021A800BB6141B9457800780AEB800020444D4571
:1021B80017D8A0EB0409E378FB61BAF1000F02D04D
:1021C8001BF0010F16D1FB6953BBFB6A1BB14946D3
:1021D80020463A6A98474D4628465C37BD46BDE8D2
:1021E800F08F461C3046FEF797FE0130304409F167
:1021F8000109DCE7626823787A62FA6A99007961F2
:1022080004EB8301002A40F001810E464FF00008DC
:102218004D4601EB0A094E454CD101EB0A0610E088
:102228001BF0020FD1D023789A007A61626804EB20
:1022380083017A62FA6A002A77D14D46904601EB0B
:102248000A061BF0050F0CBF02230123FB62FB6982
:1022580006EB430A0BF00203BB625645BCD016F8E6
:10226800021B16F8013C54F82390AF4B994502D352
:10227800AE4B994536D3BB69002B40D0786A0FF036
:1022880035F800283BD0E9468AB06A46A84B536126
:102298007B6AC2E906314FF400731384A54B42F8F8
:1022A800103F00234FF41251A34801F0C9F8023D32
:1022B800CD46D2E716F8013BF96254F82300FEF741
:1022C8002BFED7F88430F96A01304BB1D7F8883043
:1022D80098453EBFD7F8843023F8180008F1010864
:1022E800054498E7BB6923B1786A0EF0FFFF002820
:1022F800C9D11BF0010F05D1FB6AED1AADE7BB6A26
:10230800002BAAD04846FEF707FED7F8843053B111
:10231800D7F8883098453FBFD7F88420431C22F867
:10232800183008F10108054497E7BAF1000F73D097
:102338001BF0040673D0D046002607F14800524629
:102348003B61B96213F0B2FFB96A3B6901EB0A025B
:10235800BA62FA69F9695200FA60BA6A02EB410294
:102368003A610BF00202BA603A69B96A8A4258D1F6
:1023780062781BF0020F18BF00217A6208BF4FEA8B
:102388005801B2181BF0010FD2B240F09F801BF029
:10239800040F14BF40460020BB616270A070E1705A
:1023A80020463A6A7969FB6A9847051EFFF614AF1A
:1023B800BB69414623707B6A3A6A6370FB6984F89B
:1023C80002A0E37007F14800FB6A9847B0F10008E3
:1023D800C0F2B4807B69A9EB0A01C91AFB683A6AA2
:1023E800C91AD7E90A0398470028C0F2A9804FF014
:1023F800000BA84408EB000507F1380AB34567D37A
:1024080000213A6A0846FB6A9847E5E656464FF0C7
:10241800000807F1380092E75646D04696E7B046DE
:1024280094E7BA6A12F8021B12F8015CBA6254F80F
:1024380025003D4A904202D33C4A90421ED3BA69D5
:1024480032B1786A7B600EF051FF7B6800288BD12F
:10245800BA6802BB08F1280207F1300C08F1010044
:10246800944407F1580208F1020852FA80F00CF877
:10247800101C5FFA88F800F8105C75E7BA693AB181
:10248800786A7B600EF032FF7B6800287FF46CAFBF
:102498001BF0010F09D006F1280207F13000711C6A
:1024A800161806F8205CCEB25EE71BF0040F3FF466
:1024B8005BAF08F1280207F1300008F1010102EBD7
:1024C800000808F8105C5FFA81F84DE7002063E720
:1024D8001BF80A3054F8239087F83730D7F884303F
:1024E800FBB133F81B8001213A6AFB6A07F1370018
:1024F8009847002824DB0544B8F1000F06D1484668
:10250800FEF70AFD00F101081FFA88F8414648461F
:102518003A6AFB6A9847002812DB05440BF1010B65
:102528006CE7D7F88480DEE7E0660100FCA00100D4
:10253800DE7A010004000001BC6B010045464BE651
:10254800054649E6014B1860704700BF8801002026
:1025580080B505460E46174698460CF00BFD034617
:1025680014F0B0F80446DFF81890424649F80030F5
:1025780039463046A84754F8090001F0D3FF00BF98
:10258800080000002DE9F047058B0446280790460F
:1025980011D4022905F0070540F0CC8020460FF041
:1025A80048F978B10138218B042811D8DFE800F008
:1025B800C2106D85950001290CBF45F0100545F046
:1025C8002005258388F31188BFF36F8FBDE8F08756
:1025D80001F0070AAA4500F0A5800027B9463E4643
:1025E800A368002B00F0BC8041F00801218388F328
:1025F8001188BFF36F8FA168002900F0BA800D68B9
:10260800002900F0B680334652462046D1F80480AF
:10261800C047002D76D02B6829461D46F0E701F00B
:1026280007035A1F012A1BD8002221F00701062B95
:10263800276889B2C4E9002209D13B4603E0628BCE
:10264800013262831B68002BF9D141F00201204658
:1026580021830FF0EEF800287AD041F0200176E0CF
:10266800042B0AD121F0070189B2204621830FF0FB
:10267800E0F810B141F020012183218B01F0070A15
:10268800AA454FD00027B946AAE7236921F00701D8
:1026980041F00601062DD3F8009021832DD1B9F120
:1026A800000F3FD041F00801218388F31188BFF360
:1026B8006F8F20463949C84729E021F0070123696F
:1026C80041F0040189B2042DD3F804902183E6D0A7
:1026D80000274FF0040A3E4682E721F007012369EC
:1026E80041F0050189B2052DD3F808902183D6D091
:1026F80000274FF0050A3E4672E700274FF0060A0A
:102708003E466DE72B4687E7B9F1000FD1D1EFF3CD
:102718001188202383F31288BFF36F8F238B23F054
:1027280008032383258BEA062ED525F0100323837F
:1027380005F007056669218B002EBFF670AF0023F0
:102748002768C4E9003321F0070141F00101218322
:10275800218B4FF0000901F0070AAA457FF440AF2A
:10276800002F9CD041F00801218388F31188BFF322
:102778006F8F002FC8D03D683946334652462046F1
:102788000FF083F82F46F4E7AB067FF51BAF25F073
:102798002003238305F0070500E700BFBF180100E9
:1027A80010B530B90B480C490FF04EF96FF0150011
:1027B80010BD836833B9074808490FF045F96FF031
:1027C8000400F5E71B6813B1BDE810401847184628
:1027D800EEE700BFDC6B0100927B0100A37B0100E8
:1027E80010B530B90B480C490FF02EF96FF01500F1
:1027F80010BD836833B9074808490FF025F96FF011
:102808000400F5E75B6813B1BDE8104018471846A7
:10281800EEE700BFDC6B0100927B0100A37B0100A7
:1028280070B508B101B132B90B480C490FF00CF979
:102838006FF0150070BD84680CB1E56835B90648BD
:1028480007490FF001F96FF00400F3E741F8040BB2
:10285800E368BDE870401847DC6B0100C17B0100EC
:10286800A37B010010B5044630B9104810490FF099
:10287800EBF86FF0150010BD006830B90B480D4932
:102888000FF0E2F86FF00100F5E783680BB11B6900
:1028980033B9064808490FF0D7F86FF00400EAE7A3
:1028A800616898470028E6D12060E4E7DC6B010006
:1028B800ED7B0100FE7B0100A37B010070B5134690
:1028C800044630B9104811490FF0BEF86FF01500F2
:1028D80070BD006830B90C480D490FF0B5F86FF0BD
:1028E8000100F5E782680AB1956835B906480949D3
:1028F8000FF0AAF86FF00400EAE70A46AC466168F0
:10290800BDE87040604700BFDC6B0100ED7B010053
:10291800FE7B0100A37B0100034A13680BB95268D0
:1029280013600020704700BF8C01002030B50C46B2
:102938000E4985B00291D0F8D4110546CDE9003191
:1029480000F1F0014FF0FF3320460AF0CDFF50B9F7
:10295800012384F86C30D5F8D03123B1204605B076
:10296800BDE83040184705B030BD00BF491B010025
:1029780038B50C46114605460FF0E4F8034638B959
:10298800284604490FF0DEF803460020236038BDCE
:102998000120FBE7E69F01002DE9F04F0123814666
:1029A8000569466887B005F56377D7E8EF2F002AF1
:1029B80003D1C7E8E13F0029F7D10CBF1A4600222E
:1029C80040F0B480B368B16A05F5F8781C1F10466A
:1029D8000FF03CF9844272D8013A00F0A180B2FAB3
:1029E80082F24FF00044D44072682046073222F049
:1029F8000302C5F88822B16A0FF028F9C5F88C02DD
:102A0800B36A40466343033323F0030302EB4302F4
:102A1800230103EB4403093323F0030303EBC4034B
:102A2800C5F880221A440832C5F87C227368C5F8B4
:102A38008442C5F878323F4BC5E9B363D9F8003012
:102A4800C5F82432316800F0DFF90446002834D193
:102A5800D9F810B0D9F804A0D9F800300BF53A79B4
:102A6800059004934846DAE90734012B08BF103C67
:102A780013F08BF9DAF824002F4904AB01EB80211D
:102A88004FF480624846009323460BF069FE2B49B9
:102A98000BF5367013F032F9DAE9050183685C68E2
:102AA8004CB15B46264AA047044630B9DAE905012D
:102AB80083681B692BB96FF05704002129E00132A4
:102AC80085E70122984704460028F6D11D4B284681
:102AD800C5F8D0311C4BC5F8D4311C4B0393D5F83D
:102AE80038320293D5F83032CDE90083D5F89032E8
:102AF800B26AD5F8881300F04FF904460028DCD1F3
:102B080005F1F0000AF096FF0028C5F890030ADBEB
:102B1800022138460FF04AF8204607B0BDE8F08F8A
:102B28006FF00B04C9E76FF01504C6E76FF0770480
:102B3800F2E700BF9F1B010030550020851B0100F4
:102B4800791B0100592B00002B1D0100E51B01001A
:102B580013B5044640B100230122CDE90032074BEA
:102B6800D0E909120AF070FE236F1B6823B1606F69
:102B780002B0BDE81040184702B010BDE69F010042
:102B880013B504460846216901F56371D1E8AF1F02
:102B9800022910D193B1A0B10121CDE9003113462A
:102BA800D0E909120AF050FE074B984208BF6FF0AF
:102BB8000B0002B010BD6FF00F00FAE76FF04C0089
:102BC800F7E76FF00100F4E72EF8FFFF2DE9F74370
:102BD80088461546066906F56373D3E8AF3F022BAE
:102BE8005FD1136823B96FF0150003B0BDE8F08317
:102BF8001B78002BF7D0D6F88893B9F1000F33D1A2
:102C080006F5EC774FF0FF324FF0FF3338460BF004
:102C1800F7FA30462A6801A9FFF7AAFE019C1CB9F9
:102C280038460EF0C1FFDEE705F1080323676B693C
:102C380084F86C906367646460B138460EF0B4FF42
:102C480021463046A36E2A68FFF770FE0020C8F8B8
:102C58000040CAE72022296804F1480013F05DFB10
:102C680038460EF0A1FFF1E730460F490EF06AFF33
:102C780004460028B7D005F1080303676B69406470
:102C88004367002380F86C3020222968483013F00D
:102C980044FB22460121304600F060F80028D5D0D8
:102CA800A1E76FF00F00A0E7E69F010010B50C4602
:102CB800006900F56373D3E8AF3F022B0FD189B1E8
:102CC8000A4900F5367013F045F8204612F039FB32
:102CD80078220021204613F0F6FA002010BD6FF08C
:102CE8000F00FBE76FF00100F8E700BF681700204E
:102CF8002DE9F04F05460E4690460027D0F8C4A0AF
:102D080085B0AAF5BE7421463046FEF7F3F8E0B95F
:102D1800114BA4F1480B0293DAF810303246CDE992
:102D2800008329464FF0FF335846AAF5E2790AF0A6
:102D3800DBFD60B97823012203FB079383F86C203D
:102D4800DAF80C300BB158469847783417B105B00B
:102D5800BDE8F08F0127D6E7591D01001FB51446BD
:102D680090B18AB1012912D10A4B00F1F001029306
:102D7800D0F8D431483201934FF0FF332046009306
:102D88000AF0B2FD04B010BD6FF01500FAE700209C
:102D9800F8E700BF591D01002DE9F04387B00E4642
:102DA800DDE90E811446DDE910251F4630B329B34D
:102DB800DFF850C000F1F009002D08BF65469EB944
:102DC800CDE9034400F5E2742046059612F053FD60
:102DD80003ABCDE900432A463B46414648460AF044
:102DE800A3FE07B0BDE8F083002241460E92484694
:102DF8002A4607B0BDE8F0430AF0ECBF6FF01500B3
:102E0800EFE700BFF92C0000F0B50E46044689B084
:102E1800002872D0436B0BB9394B43630123224618
:102E2800E3630023D4F8981004F1400042F8301FFF
:102E3800CDE901334FF0FF330093D4F89C3011F003
:102E480054FF304A06AB92E8030083E803001846B3
:102E58000AF000FC0546D8B904F134000AF0DCFB9E
:102E68000546A8B9616B284805AA11F01AFF05465E
:102E780070B9059B9A6872B10C33D4F89400C4F801
:102E8800A0300EF096FFC4F8D40030B96FF00B05EF
:102E9800284609B0F0BD0346EFE7D4F894000EF0D9
:102EA80088FFC4F8D8000028F0D0D4F88C30D4F8C3
:102EB800A010C4F8A8300423C4F8AC30C4F8C43057
:102EC8000223A362114BB4F89420D4F8D470C4F848
:102ED800B810C4F8D010D4F89010236204F1A403F9
:102EE800A4F8B020C4F8A470C4F8C010A4F8C8208E
:102EF800C4F8BC00A661E362CAE76FF01505C7E72E
:102F0800237C0100506C01002D7C0100D06F010072
:102F18002DE9F047044607464FF00109DFF85080D5
:102F280014B93846BDE8F08794FAA4F5B5FA85F5E2
:102F380009FA05F32E0108EB05156FEA030A24EADE
:102F480003042B7B002BEBD058F806301B694BB9D8
:102F58004644736804222846196807EA0A0700F0FD
:102F68005BFADDE7284698470028D9D1F0E700BF8B
:102F78003C6C010030B5002289B00F490F4813F0AE
:102F8800EFF8002200230024CDE906230E230C4D80
:102F9800CDE903344FF440722846CDE90144094B8A
:102FA800094900940BF0F8FC0849284612F048FF3C
:102FB800204609B030BD00BFD92F0000B010002056
:102FC800280C0020C532000030590020357C010053
:102FD80001480BF0FBB900BF680500202DE9F04758
:102FE80080461F480F460EF036FF0646002830D0B0
:102FF80000252846BDE8F087237B6BB12368DB6892
:103008000BB12046984723681B69D3B9636804222B
:103018002046196800F000FA013610344C45EBD30D
:10302800B8F1000FE5D0002DE2D02846FFF770FF79
:103038000546002FF7D000214FF4A4700BF05EFF77
:10304800F1E7204698470028E0D00AFA06F31D4326
:10305800E2E705464FF0010A024CDFF80C90DDE785
:10306800A01700203C6C01004C6C0100014B53F888
:10307800200070471070010008B5034608462BB1C0
:10308800044A136000F072FC002008BD6FF01500C0
:10309800FBE700BFB801002010B5044C237813B932
:1030A80003480BF093F90123237010BD80230020FF
:1030B8006805002010B5044609480EF0CCFE3CB166
:1030C800084BD3E8EF1F0139C3E8E21F002AF8D103
:1030D800054813F051F8BDE8104004480BF076B9E4
:1030E800981700209C170020B010002068050020C9
:1030F80000200146034BD3E8EF0FC3E8E21F002A84
:10310800F9D170479817002070B5FFF7F1FF054611
:10311800074C084EB44200D370BD63685B792BB18D
:1031280023685B6813B12946204698471034F1E7B5
:103138003C6C01004C6C010010B5044C044920465D
:103148000EF013FA034B1C6010BD00BF540400209E
:10315800FC6F01009017002008B50023074A4FF4C0
:1031680000411370064A07481360074A1360FFF7C7
:1031780083FFBDE80840FFF7DFBF00BF81230020C1
:10318800981700205B1E01009C17002001460022B2
:10319800002301480EF00ABA5404002001480EF03A
:1031A800A0BA00BF54040020024B014618680EF074
:1031B800ECBA00BF9017002001480EF021BB00BFF9
:1031C8005404002070B5264B1878002847D0FFF724
:1031D800E5FF054670B1234BD3E8EF1F0139C3E87B
:1031E800E21F002AF8D1204C204EB4422DD32846A5
:1031F800FFF7DAFF1E4B1F4C1B68002B19DD12F07E
:1032080068FF4FF47A72A0FB020302FB0131C30B83
:1032180043EA4143D4E900209B1A40F2E9324FEADD
:10322800D13161EB0001934271F1000101D3FFF745
:103238006BFFD4E9003213F57A7342F10002C4E956
:103248000032BDE87040FFF7B7BF63685B7923B110
:103258002368294620461B6898471034C5E770BD87
:10326800802300209C1700203C6C01004C6C01005E
:1032780098170020A810002070B50D4D297861B965
:103288000120FFF7ABFE0B4C0B4EB44206D3FFF701
:1032980099FF0028FBD101232B7070BD63685B790F
:1032A8001BB1236820469B6898471034EDE700BFA0
:1032B800812300203C6C01004C6C010000212DE9A9
:1032C800F0470846FFF78AFE044658B340F267689D
:1032D8004FF0000913F0F6F91B4B1C4A1B581360FA
:1032E80033B11B4B1B68092B02DD1A480BF06EF833
:1032F8000025194FDFF85CA044B12046FFF708FE0F
:10330800044618B94FF0FF384FF0FF39FFF75AFF5E
:10331800064628B9B5B942464B4650460BF07AF8EE
:103328003546E9E74FF0FF384FF0FF39D2E72B6811
:103338009B691BB100222846114698471035BD42AB
:10334800F5D3E8E7054DFAE70800000094170020D8
:103358009C170020680500204C6C01003C6C0100A3
:1033680013B518480EF077FD174B1B7873B1EFF3C0
:103378001184202383F31288BFF36F8FFFF722FF96
:1033880084F31188BFF36F8F02B010BD0F4B1B6819
:10339800002BF9D050B9002200230D48CDE90023B5
:1033A8004FF4004200230CF04DF8EDE70928EBD16B
:1033B800074812F0E1FE074802B0BDE810400BF0E4
:1033C80005B800BF9C170020812300209417002017
:1033D800B01000206805002010B5064B04461B6895
:1033E80098472146A06004480EF05CF9BDE81040FB
:1033F800FFF7B6BFB801002054040020044A054B6B
:103408009B1AB1EBD30F34BF52F83100002070473C
:10341800446B01003C6C0100084B10B4C31A4468AB
:103428001B110133237143689A71012243681960A3
:1034380043685A7110BCFFF72FBE00BF3C6C0100F7
:103448002DE9F04F8FB0C1F34A2804AF0D469146DD
:10345800B8607B600C0DB8F1000F63D000264FF008
:10346800040B4FF00A0A07F11403C7F80C80C7E9E8
:1034780007667E620193CDF808B0CDF800A007F189
:103488001C0332464846F968FEF77CFEB0F5006F2B
:1034980003461CD36C468AB0D9F8041004AB2648FE
:1034A8001A46C3E9050140F2FF71D9614FF4007172
:1034B8001984224B42F8103F4FF4125133462048EA
:1034C800FFF7BEFFA5462C37BD46BDE8F08FC0F319
:1034D8000A0804F11700184420F0070080083B6030
:1034E800FFF754FE68F35325044690B13B6800F19A
:1034F8001001C7E9083607F11403F961CDE900A303
:10350800CDF808B048460F4AF96807F11C03FEF7E2
:1035180039FE68F353252A4620467B68B9680EF0C1
:10352800CCFCD0E704F1170020F007008008FFF773
:103538002DFE0446EDE700BF4A7C010004000001AF
:10354800E46B0100971E01002DE9F04F87B0044697
:10355800DDE9105ADDE91279934698460391BFB127
:103568003B46524610210020CDF80090CDF814902B
:10357800FEF736FCB0F5006F06460AD340F2FF733B
:103588000221174A174807B0BDE8F04F0EF0EEBC0D
:103598003E4605F11700304420F007008008FFF789
:1035A800F5FD04F007040BF0070BE40044EA8B1464
:1035B80044EA462444EA0554054640B13FB13B4637
:1035C80052463146CDF800901030FEF709FC4346CC
:1035D80022462846039907B0BDE8F04F0EF06DBCAF
:1035E800897C0100E46B0100406820B1034BC01ADC
:1035F80040F3CF0070474FF0FF307047446B010035
:103608000EB403B503AB53F8042B014604480193E9
:1036180001F0EEFA02B05DF804EB03B0704700BFAA
:10362800D71F0100CA0605D48B064CBF02490349BF
:10363800FFF7E6BF704700BFE59F0100E49F010068
:103648002DE9F04F89B09B46149B9DF84CA006933A
:10365800159B04460593169B0D469046179E0493AA
:10366800BAF1000F00F09D8006F4807307930EF006
:103678000CFC06F00209024600283ED0204691497B
:10368800FFF7BEFF0746B9F1000F08D016F0440F48
:1036980035D12A4620468C49FFF7B2FF074406F089
:1036A800010353B1894B204653F82A20884B894996
:1036B800002A08BF1A46FFF7A3FF06F48073002B01
:1036C80049D006F00803002B63D1B8F1000F66D08B
:1036D800424620468049FFF793FF0546069B3D4436
:1036E800002B6DD1049B002B73D1F30700F1E4800C
:1036F80031462046FFF796FFD8E00746C3E7774BE9
:1037080018680028CAD0764B4FF47A791B684FF4B2
:103718006161B5FBF3F5B5FBF0F300FB135509FB4D
:1037280005F5B3FBF1F2B5FBF0FE4FF03C0C01FBE5
:10373800123100FB1E55B1FBFCF309FB05F5B5FB87
:10374800F0F50CFB131120460091CDE901E5654920
:10375800FFF756FFA2E706F00803EBB1624B2046DD
:1037680053F82A206149FFF74BFF0546B8F1000FCF
:1037780005D0424620465849FFF742FF0544BBF1B1
:10378800000FABD05A4620465949FFF739FF054488
:10379800A4E74FF0000BE1E706F00805E6E7454629
:1037A8009CE7BBF1010F069B06D1002B64D1049B5B
:1037B800002B7BD000250CE0002BF8D04D485CE0B6
:1037C8004D48069B22464D490DF05FFD049B002B9A
:1037D80068D0DFF82C81DFF82C91049F3146102F38
:1037E800204628BF10274FF0000BFFF71BFF5D4551
:1037F80045DC059B494620461A78FFF701FF4FF044
:10380800010B1BF0070F03D141462046FFF7F8FED6
:103818005F453BD9059B4946204613F80B20FFF727
:10382800EFFE0BF1010BBBF1100FEAD14FF0000BCB
:1038380020463549FFF7E4FE5A46059B20469A5C28
:10384800A2F120015F2928BF2E223049FFF7D8FEB8
:103858000BF1010BBBF1100F1DD01BF0070F03D1AB
:1038680041462046FFF7CCFE5F455A46E5D841461B
:103878002046FFF7C5FEEBE71F485546A1E741463E
:103888002046FFF7BDFE0BF1010BB0E720462049AB
:10389800FFF7B6FEC5E7059B3B440593049BDB1B7E
:1038A80004939AD1BAF1000F7FF41FAF204609B0F4
:1038B800BDE8F04F0EF07EBB2046054A0549FFF7EC
:1038C8009FFE15E7C67C0100CA7C0100207001003C
:1038D800C17C010041880100EF7C0100A81700208D
:1038E800A4170020D37C010034700100F37C010090
:1038F800F97C010005200100D71F0100F94B0000E9
:10390800B09F0100FE7C0100047D0100067D0100DE
:10391800AE9F010042F20F7373B58B4228BF0B466E
:1039280005680446052168460D4A0BF0D7FF064690
:10393800636828460B225B680A490EF02DFB636812
:103948003246694628465B680EF026FB63681B22F0
:1039580028465B6804490EF01FFB02B070BD00BF2B
:1039680030850100257D0100097D0100002101232A
:10397800064A904206D8064A01B901231360054B4E
:1039880018607047012140085B00F2E740420F00D1
:10399800A4170020A8170020F8B50D460446064FC6
:1039A8004618B44201D12846F8BD14F8011BBB687B
:1039B80001485B689847F4E7DC670100014B036046
:1039C800002070477C70010008B504480DF0B7FC72
:1039D800BDE8084002480DF0B2BC00BF6B7D010095
:1039E800A07D01000449431E0F3013F8012F8A5CA3
:1039F80083421A70F9D17047CE7D0100F0B50746B1
:103A0800264E8DB001AD0C460FCE0FC50FCE0FC59B
:103A180096E8070085E807003846002F39D0002CC3
:103A280039D0381F0246214610344B780D781B04D4
:103A380043EA0563CD7804312B4311F8025C8C42CC
:103A480043EA052342F8043FEFD10421144C8A07C6
:103A5800036916D1C3F30742A55C1A0EA25C42EAB9
:103A68000562C3F30725655DDBB2E35C42EA054204
:103A780042EA032221F0030330336B4453F82C3C11
:103A8800534050F8042F013153402C290361DED1F3
:103A980001200DB0F0BD2046FBE700BF586C0100C7
:103AA800CE7D01002DE9F04F002703689DB00293F9
:103AB8004368DFF8BCA103938368DDE902460493F9
:103AC800C36805930369DDE904BE06934369079358
:103AD8008369DDE9062C0893C36998460993089B16
:103AE8000093CD590CAB2DBA5AF8049BDD514FEA1F
:103AF800F223A94483EAB213009D83EA72634B441C
:103B080025EA020502EA0C0985EA09052B44434423
:103B180086EA0B054FEA743888EAB408254006EAB5
:103B28000B0985EA090588EAB4580437A844402FE8
:103B380003EB0E054344DE46DDF8008040F0888044
:103B48004FF0100A4B490A9151460AF1010A0DF14A
:103B5800700E0AF00F070EEB870757F8407C01F04C
:103B68000F094FEAB748019788EAF71801F10E07DD
:103B780007F00F070EEB870757F8407C09314FEA2B
:103B8800F74E8EEA774ECDF82CE001F00F010DF1DB
:103B9800700E0EEB81010EEB890959F840EC51F8D3
:103BA800401CBAF1400F7144DDF804E088EADE08F1
:103BB800DDF82CE041448EEA972E714405EA0208AC
:103BC8004FEAF52E2CEA050787EA08078EEAB51EA4
:103BD800DDF828808EEA756E774458F804EF49F8C6
:103BE800401C77440F4400994FEA733E394484EAF5
:103BF8000607CDF828808EEAB30E07EA030704EA21
:103C080006088EEAB35E87EA080777440F4401EB9B
:103C18000B0ECDF800C0B34622D102993944016099
:103C280003991944049B416023448360059B3344F2
:103C3800C360069B73440361079B2B444361089B45
:103C480013448361099B6344C3611DB0BDE8F08FD1
:103C5800B346CDF800C0264694461C462A4640E79F
:103C6800944626462A461C4675463B466CE700BFE6
:103C78007C700100B870010010B50446C8B170220C
:103C880000210EF044FA0B4B0B4A0C49C4E90023FF
:103C98000B4B0C48C4E902130B4BC4E90403012085
:103CA8000A4BA36103F17453A3F52303A3F69243CC
:103CB800E36110BD85AE67BB67E6096A72F36E3CC7
:103CC8003AF54FA57F520E518C68059BABD9831FDF
:103CD80001480BF08FBC00BF7C71010038B5044669
:103CE80018B90F4B0F485B6898476168B1F5683F92
:103CF80010D0B1F5680F0DD00B4DA9420AD011F4C0
:103D08006861206807D00146084811F09FFE00232B
:103D18002360656038BD142212F0D5FAF9E700BFB8
:103D2800D0030020CE7E01002C5F5CA9D81C0020A7
:103D380008B560B34368B3F5683F0ED0B3F5680FB4
:103D480018D0144A934220D000684FF0FF324FF049
:103D5800FF330AF055FA58B115E001220368D3E899
:103D6800EF1F002903D1C3E8E02F0028F7D10AD1BB
:103D7800002008BD0368084A1B7803F5807352F8D1
:103D88002330002BF4D00548F3E70548F1E76FF43A
:103D9800E040EEE72C5F5CA900000350E98FFFFFCD
:103DA800EA8FFFFF08B520B34368B3F5683F09D031
:103DB800B3F5680F13D0114A93421DD000680AF07A
:103DC80097FA14E000220368D3E8EF1F012903D112
:103DD800C3E8E02F0028F7D109D0094808BD002121
:103DE8000368084A1B7803F5807342F82310002003
:103DF800F4E76FF4E040F1E70348EFE72C5F5CA9D4
:103E0800E98FFFFF00000350EA8FFFFF10B504465B
:103E180018B91D4B1D485B6898476368B3F5683F40
:103E28002FD0B3F5680F2CD0194A934219D12368C3
:103E380003BB4FF0FF324FF0FF33214615480AF01D
:103E4800B1F908B923681BB90F4B13485B68984749
:103E580014220021206812F036FA4FF46863636078
:103E680008E0B3F5683F0DD83A2B03D040F6BA62A4
:103E78009342DED1206811F021FE636843F03A03D3
:103E8800636010BD054AF3E7D0030020CE7E010031
:103E98002C5F5CA9D81C0020F47E01003A00003A8F
:103EA80008B5064940231422054811F0C1FDBDE8B4
:103EB8000840044904480BF00FBC00BFD817002085
:103EC800D81C002084710100987101002DE9F04789
:103ED80006460C4600AF002936D0D1E90012E94663
:103EE8008AB06D46A3684FF0050AA8461F48C5E981
:103EF8000723C5E9050148F810AF002342464FF4EF
:103F080021511B48FFF79CFAD4E90312CD46636997
:103F1800AD461848C5E90723C5E90501C5F810A04D
:103F2800002342464FF421511148FFF789FACD4644
:103F3800E3690121104A0E480EF018F8A36901211F
:103F48000E4A0B480EF012F8012E07D1EFF3058345
:103F58000B4A31460648103B0EF008F82146304619
:103F680009F05EFFBD46BDE8F08700BF217F010074
:103F78001C6C0100507F01007F7F01008E7F0100D3
:103F8800BC7F010030BFFFF7FDBF00BF2DE9F04146
:103F980005460B4EDFF82C80324606EB0807CC1B93
:103FA8002046094912F082F9A01942460021083C2E
:103FB80012F089F96C6707F10800BDE8F08100BFCD
:103FC80000000000040000004C6C0100074A9368E0
:103FD80093F90E10002907DB526993421FBF044A68
:103FE800536843F080535360704700BF4821002056
:103FF80000ED00E070B52A4C06460D4629482A49CE
:104008000EF0D8FCA36ADB0647D5264827490EF0F0
:10401800D1FC1120A36A1C0704D5224824490EF0BC
:10402800C9FC12201E4CA36A990712D521491D48C4
:104038000EF0C0FC636BA26A120609D501211E4A64
:1040480018480DF093FF1EB1A36A23F08003A36202
:104058001320134CA36ADE0704D5124817490EF043
:10406800A9FC1420A36A9C0604D50E4814490EF036
:10407800A1FC15200A4B9A6AD10658BF9A6A9A6A17
:10408800920642BF5A6A22F400525A629A6A42F071
:10409800FF029A6200232B7070BD1020BAE700BFA0
:1040A80000ED00E01C6C0100CF7F0100E57F0100FE
:1040B800188001002B800100438001005980010015
:1040C8007880010010B5244C244925480EF072FC74
:1040D800A36A99013ED5224822490EF06BFC1E20A6
:1040E800A36ADA0104D51E481F490EF063FC1F209D
:1040F800194CA36ADB0204D519481C490EF05AFC76
:104108000220A36A1C0304D5154819490EF052FC75
:104118002120114CA36A590304D5114815490EF002
:1041280049FC2220A36A9A0304D50D4812490EF0CF
:1041380041FC2320084CA36ADB0304D508480F4937
:104148000EF038FC2420A36A6FEA03436FEA134396
:10415800A36210BD1D20C3E700ED00E0A7800100A9
:104168001C6C0100BF800100D2800100EC800100BE
:104178001681010034810100598101007381010019
:1041880070B5294C06460D46284829490EF012FC00
:10419800A36AD9043CD5254826490EF00BFC172004
:1041A800A36A1A0504D5214823490EF003FC1820F8
:1041B8001D4CA36A9B0512D51C4820490EF0FAFB3A
:1041C800A36BA26A100409D501211D4A17480DF0F6
:1041D800CDFE1EB1A36A23F40043A3621920124C3A
:1041E800A36A590504D5114816490EF0E3FB1A20B5
:1041F800A36ADA050ED50D4813490EF0DBFB1B2028
:10420800094A936A43F47F43936200232B7070BD7D
:104218001620C5E7A36A9B04F2D504480B490EF0A3
:10422800C9FB1C20ECE700BF00ED00E01C6C01009E
:104238009E810100B481010018800100C581010040
:10424800DE810100F38101000E8201007880010007
:104258002DE9F0418AB0654B0446D3F80480002666
:1042680000AFC8F3080586F31188BFF36F8F02F01B
:104278007F43B3F17F4F07D102F00C03082B12D113
:104288005B495C480EF096FB002634460023FB7120
:10429800EB1E092B00F28980DFE803F00A7F827C9D
:1042A80087878787878510074CBF0C460126EDE76F
:1042B800514950480EF07EFB00234C4DFB71EB6AD0
:1042C8009A0705D54D494B480EF074FB002332E0A0
:1042D800EB6A002B01DA4A49F5E7EB6A5B00F5D592
:1042E800484944480EF066FB6B69A26943F4807341
:1042F8006B61BFF34F8FBFF36F8F6B6932F8022C7E
:1043080023F480736B61BFF34F8FBFF36F8F4DF64C
:1043180002739A4208D0AB6ADBB273B30120F91D6D
:10432800FFF768FE034606E023680121364A314854
:104338000DF01CFE2368FA79DAB907F1080504F1D3
:10434800200C2A4620686168083403C26445154673
:10435800F7D17A6A002E44D0C2F3080121B96FEA76
:1043680052226FEA42227A62184607F10801FFF7E3
:10437800ADFD2837BD46BDE8F081AB6A13F47F4F29
:1043880004D00120F91DFFF7FBFECBE7AB6AB3F5BC
:10439800803F9BD3FFF796FEC4E70020F91DBFE7D7
:1043A8000020F91DEFE719498DE7194A18F4F87F3D
:1043B800E8468AB0174B18BF13466A461649103D9F
:1043C800C2E905134FF400731384144BD56142F806
:1043D800103F00234FF411510648FFF731F8C54646
:1043E80074E722F4FF7222F00102BCE700ED00E05E
:1043F800548201001C6C01007F820100968201003A
:10440800B7820100C5820100E48201000083010037
:104418003B82010026820100248301000400000180
:10442800064B5A6942F010025A615A6942F4806296
:104438005A615A6922F008025A61704700ED00E09B
:10444800EFF30880EFF3098101B57246FFF700FF2B
:1044580001BD00BF002080F31488BFF36F8F0020D8
:1044680080F30A8880F30B8807F032FE00200E499B
:104478000860BFF34F8F0D4880F3088800F02CF8D0
:10448800202080F311880A484FF40061401880F317
:104498000988EFF314800221084380F31488BFF3DE
:1044A8006F8F00F003F9000094ED00E0E8BF0020F2
:1044B800A8660020002318460649D1F89020C2F3C8
:1044C8000722934200DB7047C1F89830C1F8A0007A
:1044D8000133F6E700ED00E010B572B6002484F36E
:1044E8001388FFF7E7FF23464FF0FF300C4A03F12C
:1044F80020010133102B42F82100F8D100234FF09E
:10450800FF30074A03F160010133102B42F8210004
:10451800F8D162B6BFF34F8FBFF36F8F10BD00BFE6
:1045280000E100E0084B9B6883420BD1EFF3058361
:1045380043B1064B5A6842F080525A605A6A22F4D4
:1045480000425A6211F068BD4821002000ED00E0E9
:104558006FF00A01084A9368D967084998674B6859
:1045680043F080534B60002383F31188BFF36F8FB0
:104578009368D86F704700BF4821002000ED00E025
:10458800EFF31183202383F31288BFF36F8F4FF06B
:104598000061084A53699360074A5160596F074A96
:1045A800116000219A6F996782F31188BFF36F8FAA
:1045B800704700BF4821002000ED00E0F41C0020F7
:1045C8000E498A684FF030001044EFF3098C80E8F8
:1045D800F01F74467046FFF7D3FFA64607498A685E
:1045E80002F1300090E8F01F8CF3098802F1000016
:1045F80004B50EF0E7F9BDE80440704748210020F3
:104608001EF0040F0CBFEFF30880EFF309808169F7
:1046180011F8021C0229FFD001B50EF0C0F901BD46
:1046280040B2002807DB01234109034A00F01F00BC
:10463800834042F82130704700E100E040B2002892
:104648000CDB01220649430900F01F008240203399
:1046580041F82320BFF34F8FBFF36F8F704700BF20
:1046680000E100E0054B420953F82220012300F045
:104678001F0003FA00F01040704700BF00E100E09F
:1046880040B2002801F10101ACBF00F16040064BC7
:104698004FEA4111C9B2ABBF00F5614000F00F000D
:1046A80080F800131954704714ED00E00B4A08B560
:1046B8000B4B22F07F029A60BFF34F8FBFF36F8FCF
:1046C800D3F8882022F47002C3F8882009F094FCFB
:1046D8000AF0EEFC00F04CF809F0CEFC00000000F7
:1046E80000ED00E042F8203C009B0B4942F81C3CDE
:1046F800019B21F0010142F8183C029B42F8081C7A
:1047080042F8143C4FF0807342F8043C0023203AEE
:1047180002658367704700BF5925000000B50D4B3F
:1047280015469860426F0C4B0E461A60436E83F331
:104738000B882C4686F309884FF00000074B9847F2
:1047480020464FF000014FF000024FF00003044CE8
:10475800204700BF48210020F41C0020D529010073
:10476800592500001022014B1A61704700ED00E046
:10477800002320210348C2180133452B82F8001377
:10478800F9D1704700E100E008B5EFF30583064A68
:10479800103B02EBC30152F8330049688847BDE873
:1047A8000840FFF713BC00BF546801001FB5094C4F
:1047B800094A23460121094800F012F9002303930E
:1047C800074B0121E41A01A80193029400F012F9A1
:1047D80004B010BD0000072000000020A8710100EF
:1047E8001007002010B50C7A0B6804F01F0223F0A4
:1047F8001F031A43CB68640923F01F03054943EAE2
:10480800440343F00103C1F89800C1F89C20C1F8A3
:10481800A03010BD00ED00E010B50A4BD3F8903081
:10482800C3F30723013B984208D901210346064AEE
:1048380006480DF09BFB6FF0150010BDFFF7D2FF87
:10484800FBE700BF00ED00E03B830100046C0100C2
:104858002DE9F04F8946144606464FF00008514DA1
:1048680085B0C84527DAD6F804A0BAF1000F44D0BD
:10487800BAF11F0F17D91AF01F0F14D1D6F800B0CC
:104888001BF01F0F0FD158460EF0DCF807460AEB55
:104898000B0001380EF0D6F8874210D06FF01507DC
:1048A800414A3B4601E04346404A012140480DF059
:1048B8005DFB6FF01504204605B0BDE8F08F17F1D9
:1048C800160FEDD0BC42EBDDC5F89870D5F89C10FA
:1048D800C5F89870D5F8A03021F01F0143F01F0BE0
:1048E800D6E900321A44994202F1FF3A1DD1D34564
:1048F80007D13146F8B20EF0AEF808F101080C36CF
:10490800AFE73146C5F89870D5F89C3022F01F0201
:1049180003F01F031343C5F89C30E0B20EF09BF878
:1049280010F1160FC5D0441CE7E7C5F89870D5F804
:10493800A020013B23F01F0302F01F021343D345BD
:104948003146E0B2C5F8A030E8D00EF084F810F196
:10495800160FAED0C5F89870D5F89C209DF8083091
:104968000BF1FF3B62F304038DF80830D5F8A03053
:104978009DF808205B0863F347128DF80820D6E9F4
:1049880000321344009323F01F035B44A3EB0A0394
:10499800013023F01F036946C0B20393FFF73CFFC1
:1049A800BEE700BF00ED00E08483010061830100E1
:1049B800046C01000522044BC3F89420BFF34F8F09
:1049C800BFF36F8F704700BF00ED00E0BFF35F8F4C
:1049D8000022024BC3F89420704700BF00ED00E0AE
:1049E80010B5034C2278FFF733FF207010BD00BFCD
:1049F800832300202DE9F74F294D8A4606464FF0BC
:104A08000008AB46274FD0451BDAD6F80490B9F119
:104A1800000F3FD03168084601910EF013F8019954
:104A2800044609EB010001380EF00CF884424FF0FF
:104A380014021D4B08D002FB08F36FF015024BF867
:104A4800032003B0BDE8F08F14F1160F2C60F8D0E6
:104A58001978A142F5DD02FB08B0C7F89840C7F8FD
:104A68009840D7F89C4000F10801007B64F30400EB
:104A78000871D7F8A0000C79400860F347140C714E
:104A8800D7F89C1021F01F016960D7F8A01021F019
:104A98001F01296108F1010814350C36B3E700BF7E
:104AA800F81C002000ED00E083230020F0B5414908
:104AB800414CD1F890302568C3F307239D4287B055
:104AC80075D80020FFF782FF3C4BC1F8C030854203
:104AD80016D13B4C01A82570FEF770FF002506464D
:104AE800384FAE4213D1002023783249D1F89020B4
:104AF800C2F30722934254DBFFF75CFF00202FE04C
:104B0800616801EB0011FFF76DFE0130DFE70199E5
:104B1800280101EB0513DA683A40B2F5001F21D0ED
:104B2800B2F5800F2BD0B2F5801F38D15A689B6838
:104B38000958013B22F01F0003440120844623F05A
:104B48001F0340EA4C10CDE902218DF8100002A99C
:104B580020780593FFF760FE00281DDA6FF0150036
:104B680007B0F0BD5A689B680958013B22F01F0046
:104B780003444FF0020C012023F01F03E1E75A68B9
:104B88009B680958013B22F01F0003444FF0000CBA
:104B9800062023F01F03D4E723780133237001355F
:104BA8009FE7C1F89830C1F8A00001339EE74FF0A5
:104BB800FF30D5E700ED00E0B4710100AAFF440022
:104BC800832300200000F0FF08B5024B1B689847BC
:104BD800002008BD0C1D0020034B044A1860937880
:104BE80043F00203937070470C1D0020E40100207D
:104BF800F0B587B007460E461446002110226846D5
:104C08001D4611F060FB02238DF80230054B2A4641
:104C180021466846CDE9047601930AF025FF07B0DE
:104C2800F0BD00BF912A010008B50649064821F0E9
:104C38000701C1F1005202F5E0220CF0CEFA002083
:104C480008BD00BF6B2D0120101D002070B5416903
:104C58000446867A0A4D59B1437ADB0706D42C23D9
:104C680003FB06535B6A1B689B68984700236361D4
:104C78002C20214606FB0050BDE8704010F0ADBF67
:104C8800B00500202C22024B02FB0030704700BF09
:104C9800B00500202C21827A054B01FB02339A6A69
:104CA8001B7F801A1B3323F00303B0FBF3F070471C
:104CB800B005002038B52C24827A064B04FB023359
:104CC8005B6AD3E901240C601568FFF7E3FF04FB76
:104CD800005038BDB00500202DE9F04F85B00546DD
:104CE800684691461C4690469A46039111F0F3F99E
:104CF800DDE90067EFF3118B202383F31288BFF3FC
:104D08006F8F698B002942D02B8B8B4226D90022CA
:104D18000023284609F028FB0446F8B18BF31188D4
:104D2800BFF36F8F039B002B4FD032463B4668463C
:104D380011F0F5F92C21A27A2C4B204601FB023305
:104D48005B6A03A91B681D68DDE90023A847606149
:104D580000283BD12046FFF779FF31E0698B4B1ED5
:104D68006B838BF31188BFF36F8F2B7F2A8BAC6A11
:104D78001B3323F00303521A02FB03441B4B1C4A48
:104D8800EB1A9B105343A3722B7FE372CAE78BF392
:104D98001188BFF36F8F54EA090409D011F092FC0F
:104DA800144A154B12589A420ABF8846C846C2464A
:104DB80042465346284609F0D7FA04460028B1D19E
:104DC8000024204605B0BDE8F08F6361012300256B
:104DD8002381039B29466382E27A656004F1180007
:104DE80011F071FA63692582E360EAE7B0050020F3
:104DF800A38B2EBA080000002016002070B52C25C1
:104E08000B4C00B970BD037A4668013BDBB20372F4
:104E1800002BF7D1C3604360837A05FB03431B6A09
:104E280013B198473046ECE7FFF710FFFAE700BFE9
:104E3800B005002000F01F0240090DD001280DD157
:104E4800094B03EB8203D3F8002222F0E04242EA46
:104E58000171C3F800127047044BF2E70023803257
:104E680053F82230FFDE00BF00288450002584500C
:104E780038B50124134B144DC3F800450223032110
:104E8800C5F8D0360020FFF7D5FF20460321FFF7ED
:104E9800D1FFC5F804472146C5F804492120C5F8C3
:104EA800004BFFF7C7FF21462020FFF7C3FF21462D
:104EB8000B20FFF7BFFF21460A20FFF7BBFF0020AA
:104EC80038BD00BF001000500040005007B50DF17C
:104ED800070007F027FA114B98421CD14FF4806263
:104EE8000F4B1049C3F8B8254FF40062C3F83C25AE
:104EF8009DF807000FF0ECFC0B499DF807000FF038
:104F0800E2FC01209DF80730984007F0FFF90020E7
:104F180003B05DF804FB6FF00B00F9E70000AD0B80
:104F280000A002502CA0025028A10250052370B501
:104F3800144D154E2C780134B4FBF3F303EB8303C3
:104F4800E41A0FF0AEFC114A137823B156F8243056
:104F5800C01A072814D94FF05023D3F8141141B1BF
:104F68000021C3F81411D3F814312C700CB90123A3
:104F780013702C780FF095FC46F82400012070BDC2
:104F88000020FCE7852300201C1D0020842300202E
:104F980048B1054B054A1B68B3FBF2F35843044B71
:104FA80043F0010318477047FC02002040420F00FD
:104FB800E06C0100014902480CF08ABCEC71010068
:104FC800301D00204FF47F032DE9F041D3F8302144
:104FD8000646072A0D46D3F8343120D1023B032B6D
:104FE80002D8124AD35CD3B14FF050244FF00108D5
:104FF80000270520C4F81886C4F814760FF061FC61
:105008004046C4F814860FF05CFCC4F81476C4F863
:10501800187630462B46BDE8F041002118474FF07E
:1050280050230022C3F81426F3E700BFD183010000
:105038001FB578B1002301930393012369460848FB
:1050480002930CF058FC029B9B0700D1039B05B010
:105058005DF804FB024805B05DF804EB0CF0A2BC57
:10506800301D002073B5069CC4F30726304606F0B1
:1050780023FEE5B2014628460FF036FC0022012047
:105088000A4BA40B04F0FC041A51094BA8400093E6
:105098008DF8042007F040F9304606F0C1FF294694
:1050A800684607F035FA02B070BD00BF80A0025014
:1050B800007001507FB52C4B01A90293002302A870
:1050C8008DF80C3007F01CFA284B984248D106F0AE
:1050D80089FF041E0BDA9DF8041002A807F018FADD
:1050E80001212346224A23480CF040FF35E040F6D0
:1050F8000703214D8DF80540AE68ADF80630746899
:10510800019B14B96FF05704EAE7082128461B4AA7
:10511800A047041EE4DB3369002BF3D001220821E9
:1051280028469847041EDBDB01209DF80430984090
:1051380007F0ECF89DF805009DF804509DF807600D
:105148000FF099FB014628460FF0C2FB0C4BB60046
:1051580045F000459D51002CC2D1204604B070BDD9
:105168006FF01204BCE700BF007001500000AD0BE7
:10517800D58301002C6C0100F06701008D510000FF
:1051880080A102502DE9F341144683681B690BB1D5
:1051980000229847C4F30726304606F095FD0546D9
:1051A80030460FF068FB4FF00008E7B2014638467A
:1051B8000FF09EFB104B220E920043F802803046FF
:1051C80006F07AFD0D4A4FEA943C0CF0FC0C47F0CF
:1051D800004342F80C30014638460FF074FB084B88
:1051E80005F13202009330464346019452000FF015
:1051F8004CFB02B0BDE8F08180A1025080A00250B3
:105208006D5000000E4B402928BF402170B51D4647
:105218000C4C4618B04203F1020304D1002305F8F0
:105228001130074870BD02781209A25C03F8022CFD
:1052380010F8012B02F00F02A25C03F8012CE9E739
:10524800A42300206584010030B503788BB00446A0
:1052580007AD032B21D8DFE803F0021A1C1E124900
:105268002846FBF751FE059563781E210493A37821
:105278000E4A0393E3780E480293237901936379E6
:105288000093A3790AF02AFB09480BB030BD0949FD
:10529800E6E70949E4E70949E2E70A212846084A16
:1052A8000AF01CFBDFE700BF2084010042840100F4
:1052B80086230020278401002E8401003884010001
:1052C800AE94010030B50024094D0A4B85B028463C
:1052D8000293039410F059FD02AB284600934FF453
:1052E800A3620A23044909F03BFA204605B030BD01
:1052F800E810002076840100305C00200146014857
:1053080009F0A8BAE8100020037830B5012B13D0B3
:10531800022B27D07BB90A46184B03F1100453F827
:10532800045BA34242F8045BF9D11B7813704388ED
:105338004B731B0A8B7330BD0A46104B03F11004E4
:1053480053F8045BA34242F8045BF9D11B7813704D
:105358004368C3F307224B731B0CCB731B0A8A7376
:105368000B74E8E700F1100350F8042B984241F859
:10537800042BF9D103780B70DDE700BF7F840100AF
:10538800012838B505460CBF064807480DF08DFBC7
:10539800044620B101210C300DF0DCFB25762046B7
:1053A80038BD00BF60060020B00500200F2810B5EA
:1053B8000ED80D280ED90B480DF077FB044628B1FE
:1053C80001210C300DF0C6FB01232376204610BDC9
:1053D8001328F0D009B10448EEE70120BDE81040D9
:1053E800FFF7CEBFE406002034060020C368022180
:1053F8001B78024A02480DF0E0BC00BF9F84010000
:10540800846B010070B5C6683378B6F8014083B97B
:105418000F21204602F058FDF378054650B90A4A94
:10542800118831B96FEA04506FEA10501080074AAA
:10543800137070BD4372012102F064FC2846BDE878
:10544800704002F039BC00BF5823002025240020FA
:1054580070B5C3681D78BDB9B3F801600F21304637
:1054680002F032FD044638B93346BDE870400121E8
:10547800064A07480DF0A1BC294602F043FC204625
:10548800BDE8704002F018BC70BD00BFC7840100C1
:10549800846B010010B5C3680121B3F801402046B0
:1054A80002F012FD38B92346BDE810400121044A34
:1054B80004480DF082BCBDE8104002F0FDBB00BFFF
:1054C800ED840100846B0100012110B50C300DF052
:1054D8007CFBBDE8104003780121024A02480DF028
:1054E8006CBC00BF11850100846B0100014610B53A
:1054F80008480DF0DEFA0849084810F01BFC031EA6
:1055080006DABDE810400121054A06480DF055BCF1
:1055180010BD00BF4C0100200402002088110020AB
:1055280033850100846B010010B5084C0146062242
:1055380094F86F0002F082FF38B994F86F000522E2
:10554800BDE81040024902F079BF10BD00000020FC
:10555800068401000121024A02480DF02CBC00BF5C
:1055680050850100846B01000B46B0B50D8A00AF71
:1055780004462946D868FFF745FE8AB06A46094BB3
:10558800C2E90750C2E9053440F202439384064B4E
:105598004FF43251054842F8103F0DF01BFCBD4650
:1055A800B0BD00BF6A85010005000001846B0100E1
:1055B80070B5C5680121B5F80160304602F084FC79
:1055C800044638B93346BDE8704001210B4A0C48FF
:1055D8000DF0F3BB2B783BB9D5F80330C0F8953004
:1055E800D5F80730C0F89930201D4FF480410DF0F0
:1055F800E6FB2046BDE8704002F05EBBED8401008A
:10560800846B0100B0B53C28044600AF1AD101F004
:105618004DFE6FF0800110300DF0DFFB0020FFF72A
:1056280083FF054630B90121114A12480DF0C3FB2A
:10563800BD46B0BD4472002102F064FB284602F06A
:105648003BFBF5E76D468AB06A460B4B4FF41251A7
:10565800C2E90530094B0748D36140F2013313848E
:10566800074B42F8103F0DF0B5FBAD46E0E700BF31
:105678008C850100846B0100AD850100E69F010067
:105688000400000137B50446084602EBC3039A42FA
:1056980002D16FF05E0010E0114611F8085BA542D8
:1056A80011D1038A5178994209D908480121084A39
:1056B80000940CF065FC6FF0150003B030BD536822
:1056C80098470020F9E70A46E1E700BF846B01002C
:1056D800C985010073B53E480DF000FA044600285C
:1056E80073D0017E012945D003296BD1038A032B8E
:1056F80002D8384A012141E004210C300DF065FA46
:10570800FF23428806886376238AC6F30B009A42F1
:10571800A08309D0012100922F48304A0CF030FCB8
:105728002046FFF76BFB12E00F2102F0CDFB054688
:1057380010B9A38B2A4ADDE702F006FC2146607601
:10574800320B284602F0ACF9284602F0B5FA254B90
:10575800D3F84C31002B38D02349244810F0EAFA0A
:10576800031E32DA0121224A1B4802B0BDE870400C
:105778000DF023BB038A012B04D81E4A16480DF0EE
:105788001CFBCDE702210C300DF01FFA054600780E
:105798000DF0FFFA10F002060DD140F6A833164AB4
:1057A800164917480BF0D8FD86F31188BFF36F8FA1
:1057B8000323184602DF04232146124A28780DF0F5
:1057C80014FBADE70B46104A94E702B070BD00BF6A
:1057D8004C010020EB850100846B01000C86010060
:1057E80030860100000000200402002088110020FB
:1057F80033850100528601006E860100A2860100F1
:10580800D086010098720100ED86010010B50121D3
:1058180004460C300DF0D9F92146BDE810400623A6
:10582800014A00780DF0E1BAB8720100F8B501211B
:10583800044600AF0C300DF0C8F906780023214665
:105848003046104AFFF71EFF5F3018D1258AE068FE
:105858002946FFF7D7FC6C468AB06A460A4BC2E96C
:105868000750C2E9053640F202439384074B4FF4D0
:105878003251074842F8103F0DF0ACFAA546BD4634
:10588800F8BD00BFE87201000187010005000001B2
:10589800846B01002DE9F74F00238046894617469F
:1058A800DFF810A1DAE8EF4FCAE8E23F002AF9D1A1
:1058B800264644B9434601213F4A404803B0BDE863
:1058C800F04F0DF07ABA2046FFF7E4F94FF00C0BD1
:1058D8003B4D0BFB0050438843451BD02046FFF748
:1058E800D9F90BFB0050438801210093354A434600
:1058F80032480CF045FBDAE8EF3FCAE8E26F002ACD
:10590800F9D1002B53D01E46304603B0BDE8F04F06
:10591800FFF774BAA7420ED020460DF0C1F8012156
:1059280004F10C08404621760DF014F940463A8AF5
:10593800F9680DF020F92046FFF7ACF90C2707FBB2
:1059480000504368ABB1B9F1000F12D12046FFF700
:10595800A1F9012107FB00504268D2E90003127A3D
:1059680003F01F07B9405B09DAB100EB83000DF0C3
:1059780026FA2046FFF78EF90C2707FB00508368AC
:10598800002BC1D02046FFF785F9784305F8009031
:105998002046FFF77FF907FB0055A86808F016FDB9
:1059A800B2E7C94300EB83000DF017FAE1E703B053
:1059B800BDE8F08F4801002033870100846B0100A7
:1059C8004C1D00205B8701002DE9F84F0123D0F81A
:1059D8000C80018A98F8004000AF03EB84038B42E7
:1059E8005BD96D468AB06A46C2E9073105232D485E
:1059F8004FF42151C2E905042B4842F8103F0DF03D
:105A0800E9F9AD46BD46BDE8F88F4B460121274A66
:105A180025480DF0D2F9013598F800309D42F1DAA9
:105A280008EB8503B3F801900F214846B3F80360EB
:105A380002F04AFA04460028E7D000F1C0095EB136
:105A4800204601F0D1FF08F0C1FC636943B95A460A
:105A5800012115480DF0AFF9204602F02DF9DAE7DB
:105A6800A1691A688B42626108BFA261C3F800A0ED
:105A7800226A7AB9C4E90733D9E8EF3F013BC9E89C
:105A8800E23F002AF8D100212046013E01F0B8FF8C
:105A9800B6B2D4E713602362EEE70025DFF810B052
:105AA800AA46B9E78E870100846B0100B887010018
:105AB800D487010073B5C5680121B5F80160304687
:105AC80002F002FA044640B933460121284A29481F
